{
  "contractName": "Artwork",
  "abi": [
    {
      "inputs": [],
      "stateMutability": "nonpayable",
      "type": "constructor"
    },
    {
      "anonymous": false,
      "inputs": [
        {
          "indexed": true,
          "internalType": "address",
          "name": "owner",
          "type": "address"
        },
        {
          "indexed": true,
          "internalType": "address",
          "name": "approved",
          "type": "address"
        },
        {
          "indexed": true,
          "internalType": "uint256",
          "name": "tokenId",
          "type": "uint256"
        }
      ],
      "name": "Approval",
      "type": "event"
    },
    {
      "anonymous": false,
      "inputs": [
        {
          "indexed": true,
          "internalType": "address",
          "name": "owner",
          "type": "address"
        },
        {
          "indexed": true,
          "internalType": "address",
          "name": "operator",
          "type": "address"
        },
        {
          "indexed": false,
          "internalType": "bool",
          "name": "approved",
          "type": "bool"
        }
      ],
      "name": "ApprovalForAll",
      "type": "event"
    },
    {
      "anonymous": false,
      "inputs": [
        {
          "indexed": true,
          "internalType": "address",
          "name": "from",
          "type": "address"
        },
        {
          "indexed": true,
          "internalType": "address",
          "name": "to",
          "type": "address"
        },
        {
          "indexed": true,
          "internalType": "uint256",
          "name": "tokenId",
          "type": "uint256"
        }
      ],
      "name": "Transfer",
      "type": "event"
    },
    {
      "inputs": [
        {
          "internalType": "address",
          "name": "to",
          "type": "address"
        },
        {
          "internalType": "uint256",
          "name": "tokenId",
          "type": "uint256"
        }
      ],
      "name": "approve",
      "outputs": [],
      "stateMutability": "nonpayable",
      "type": "function"
    },
    {
      "inputs": [
        {
          "internalType": "uint256",
          "name": "",
          "type": "uint256"
        }
      ],
      "name": "artworks",
      "outputs": [
        {
          "internalType": "string",
          "name": "",
          "type": "string"
        }
      ],
      "stateMutability": "view",
      "type": "function"
    },
    {
      "inputs": [
        {
          "internalType": "address",
          "name": "owner",
          "type": "address"
        }
      ],
      "name": "balanceOf",
      "outputs": [
        {
          "internalType": "uint256",
          "name": "",
          "type": "uint256"
        }
      ],
      "stateMutability": "view",
      "type": "function"
    },
    {
      "inputs": [
        {
          "internalType": "uint256",
          "name": "tokenId",
          "type": "uint256"
        }
      ],
      "name": "getApproved",
      "outputs": [
        {
          "internalType": "address",
          "name": "",
          "type": "address"
        }
      ],
      "stateMutability": "view",
      "type": "function"
    },
    {
      "inputs": [
        {
          "internalType": "address",
          "name": "owner",
          "type": "address"
        },
        {
          "internalType": "address",
          "name": "operator",
          "type": "address"
        }
      ],
      "name": "isApprovedForAll",
      "outputs": [
        {
          "internalType": "bool",
          "name": "",
          "type": "bool"
        }
      ],
      "stateMutability": "view",
      "type": "function"
    },
    {
      "inputs": [],
      "name": "name",
      "outputs": [
        {
          "internalType": "string",
          "name": "",
          "type": "string"
        }
      ],
      "stateMutability": "view",
      "type": "function"
    },
    {
      "inputs": [
        {
          "internalType": "uint256",
          "name": "tokenId",
          "type": "uint256"
        }
      ],
      "name": "ownerOf",
      "outputs": [
        {
          "internalType": "address",
          "name": "",
          "type": "address"
        }
      ],
      "stateMutability": "view",
      "type": "function"
    },
    {
      "inputs": [
        {
          "internalType": "address",
          "name": "from",
          "type": "address"
        },
        {
          "internalType": "address",
          "name": "to",
          "type": "address"
        },
        {
          "internalType": "uint256",
          "name": "tokenId",
          "type": "uint256"
        }
      ],
      "name": "safeTransferFrom",
      "outputs": [],
      "stateMutability": "nonpayable",
      "type": "function"
    },
    {
      "inputs": [
        {
          "internalType": "address",
          "name": "from",
          "type": "address"
        },
        {
          "internalType": "address",
          "name": "to",
          "type": "address"
        },
        {
          "internalType": "uint256",
          "name": "tokenId",
          "type": "uint256"
        },
        {
          "internalType": "bytes",
          "name": "_data",
          "type": "bytes"
        }
      ],
      "name": "safeTransferFrom",
      "outputs": [],
      "stateMutability": "nonpayable",
      "type": "function"
    },
    {
      "inputs": [
        {
          "internalType": "address",
          "name": "operator",
          "type": "address"
        },
        {
          "internalType": "bool",
          "name": "approved",
          "type": "bool"
        }
      ],
      "name": "setApprovalForAll",
      "outputs": [],
      "stateMutability": "nonpayable",
      "type": "function"
    },
    {
      "inputs": [
        {
          "internalType": "bytes4",
          "name": "interfaceId",
          "type": "bytes4"
        }
      ],
      "name": "supportsInterface",
      "outputs": [
        {
          "internalType": "bool",
          "name": "",
          "type": "bool"
        }
      ],
      "stateMutability": "view",
      "type": "function"
    },
    {
      "inputs": [],
      "name": "symbol",
      "outputs": [
        {
          "internalType": "string",
          "name": "",
          "type": "string"
        }
      ],
      "stateMutability": "view",
      "type": "function"
    },
    {
      "inputs": [
        {
          "internalType": "uint256",
          "name": "tokenId",
          "type": "uint256"
        }
      ],
      "name": "tokenURI",
      "outputs": [
        {
          "internalType": "string",
          "name": "",
          "type": "string"
        }
      ],
      "stateMutability": "view",
      "type": "function"
    },
    {
      "inputs": [
        {
          "internalType": "address",
          "name": "from",
          "type": "address"
        },
        {
          "internalType": "address",
          "name": "to",
          "type": "address"
        },
        {
          "internalType": "uint256",
          "name": "tokenId",
          "type": "uint256"
        }
      ],
      "name": "transferFrom",
      "outputs": [],
      "stateMutability": "nonpayable",
      "type": "function"
    },
    {
      "inputs": [],
      "name": "getTokens",
      "outputs": [
        {
          "internalType": "string[]",
          "name": "",
          "type": "string[]"
        }
      ],
      "stateMutability": "view",
      "type": "function"
    },
    {
      "inputs": [
        {
          "internalType": "string",
          "name": "_artwork",
          "type": "string"
        }
      ],
      "name": "mint",
      "outputs": [],
      "stateMutability": "nonpayable",
      "type": "function"
    }
  ],
  "bytecode": "0x60806040523480156200001157600080fd5b506040518060400160405280600781526020017f417274776f726b000000000000000000000000000000000000000000000000008152506040518060400160405280600781526020017f415254574f524b00000000000000000000000000000000000000000000000000815250816000908051906020019062000096929190620000b8565b508060019080519060200190620000af929190620000b8565b505050620001cd565b828054620000c69062000168565b90600052602060002090601f016020900481019282620000ea576000855562000136565b82601f106200010557805160ff191683800117855562000136565b8280016001018555821562000136579182015b828111156200013557825182559160200191906001019062000118565b5b50905062000145919062000149565b5090565b5b80821115620001645760008160009055506001016200014a565b5090565b600060028204905060018216806200018157607f821691505b602082108114156200019857620001976200019e565b5b50919050565b7f4e487b7100000000000000000000000000000000000000000000000000000000600052602260045260246000fd5b612b2b80620001dd6000396000f3fe608060405234801561001057600080fd5b50600436106101005760003560e01c806370a0823111610097578063b88d4fde11610066578063b88d4fde146102bf578063c87b56dd146102db578063d85d3d271461030b578063e985e9c51461032757610100565b806370a082311461023757806395d89b4114610267578063a22cb46514610285578063aa6ca808146102a157610100565b806323b872dd116100d357806323b872dd1461019f57806342842e0e146101bb5780634b602673146101d75780636352211e1461020757610100565b806301ffc9a71461010557806306fdde0314610135578063081812fc14610153578063095ea7b314610183575b600080fd5b61011f600480360381019061011a9190611c45565b610357565b60405161012c9190612479565b60405180910390f35b61013d610439565b60405161014a9190612494565b60405180910390f35b61016d60048036038101906101689190611cd8565b6104cb565b60405161017a91906123f0565b60405180910390f35b61019d60048036038101906101989190611c09565b610550565b005b6101b960048036038101906101b49190611b03565b610668565b005b6101d560048036038101906101d09190611b03565b6106c8565b005b6101f160048036038101906101ec9190611cd8565b6106e8565b6040516101fe9190612494565b60405180910390f35b610221600480360381019061021c9190611cd8565b610794565b60405161022e91906123f0565b60405180910390f35b610251600480360381019061024c9190611a9e565b610846565b60405161025e9190612676565b60405180910390f35b61026f6108fe565b60405161027c9190612494565b60405180910390f35b61029f600480360381019061029a9190611bcd565b610990565b005b6102a9610b11565b6040516102b69190612457565b60405180910390f35b6102d960048036038101906102d49190611b52565b610bea565b005b6102f560048036038101906102f09190611cd8565b610c4c565b6040516103029190612494565b60405180910390f35b61032560048036038101906103209190611c97565b610cf3565b005b610341600480360381019061033c9190611ac7565b610dc0565b60405161034e9190612479565b60405180910390f35b60007f80ac58cd000000000000000000000000000000000000000000000000000000007bffffffffffffffffffffffffffffffffffffffffffffffffffffffff1916827bffffffffffffffffffffffffffffffffffffffffffffffffffffffff1916148061042257507f5b5e139f000000000000000000000000000000000000000000000000000000007bffffffffffffffffffffffffffffffffffffffffffffffffffffffff1916827bffffffffffffffffffffffffffffffffffffffffffffffffffffffff1916145b80610432575061043182610e54565b5b9050919050565b60606000805461044890612920565b80601f016020809104026020016040519081016040528092919081815260200182805461047490612920565b80156104c15780601f10610496576101008083540402835291602001916104c1565b820191906000526020600020905b8154815290600101906020018083116104a457829003601f168201915b5050505050905090565b60006104d682610ebe565b610515576040517f08c379a000000000000000000000000000000000000000000000000000000000815260040161050c906125d6565b60405180910390fd5b6004600083815260200190815260200160002060009054906101000a900473ffffffffffffffffffffffffffffffffffffffff169050919050565b600061055b82610794565b90508073ffffffffffffffffffffffffffffffffffffffff168373ffffffffffffffffffffffffffffffffffffffff1614156105cc576040517f08c379a00000000000000000000000000000000000000000000000000000000081526004016105c390612636565b60405180910390fd5b8073ffffffffffffffffffffffffffffffffffffffff166105eb610f2a565b73ffffffffffffffffffffffffffffffffffffffff16148061061a575061061981610614610f2a565b610dc0565b5b610659576040517f08c379a000000000000000000000000000000000000000000000000000000000815260040161065090612556565b60405180910390fd5b6106638383610f32565b505050565b610679610673610f2a565b82610feb565b6106b8576040517f08c379a00000000000000000000000000000000000000000000000000000000081526004016106af90612656565b60405180910390fd5b6106c38383836110c9565b505050565b6106e383838360405180602001604052806000815250610bea565b505050565b600681815481106106f857600080fd5b90600052602060002001600091509050805461071390612920565b80601f016020809104026020016040519081016040528092919081815260200182805461073f90612920565b801561078c5780601f106107615761010080835404028352916020019161078c565b820191906000526020600020905b81548152906001019060200180831161076f57829003601f168201915b505050505081565b6000806002600084815260200190815260200160002060009054906101000a900473ffffffffffffffffffffffffffffffffffffffff169050600073ffffffffffffffffffffffffffffffffffffffff168173ffffffffffffffffffffffffffffffffffffffff16141561083d576040517f08c379a000000000000000000000000000000000000000000000000000000000815260040161083490612596565b60405180910390fd5b80915050919050565b60008073ffffffffffffffffffffffffffffffffffffffff168273ffffffffffffffffffffffffffffffffffffffff1614156108b7576040517f08c379a00000000000000000000000000000000000000000000000000000000081526004016108ae90612576565b60405180910390fd5b600360008373ffffffffffffffffffffffffffffffffffffffff1673ffffffffffffffffffffffffffffffffffffffff168152602001908152602001600020549050919050565b60606001805461090d90612920565b80601f016020809104026020016040519081016040528092919081815260200182805461093990612920565b80156109865780601f1061095b57610100808354040283529160200191610986565b820191906000526020600020905b81548152906001019060200180831161096957829003601f168201915b5050505050905090565b610998610f2a565b73ffffffffffffffffffffffffffffffffffffffff168273ffffffffffffffffffffffffffffffffffffffff161415610a06576040517f08c379a00000000000000000000000000000000000000000000000000000000081526004016109fd90612516565b60405180910390fd5b8060056000610a13610f2a565b73ffffffffffffffffffffffffffffffffffffffff1673ffffffffffffffffffffffffffffffffffffffff16815260200190815260200160002060008473ffffffffffffffffffffffffffffffffffffffff1673ffffffffffffffffffffffffffffffffffffffff16815260200190815260200160002060006101000a81548160ff0219169083151502179055508173ffffffffffffffffffffffffffffffffffffffff16610ac0610f2a565b73ffffffffffffffffffffffffffffffffffffffff167f17307eab39ab6107e8899845ad3d59bd9653f200f220920489ca2b5937696c3183604051610b059190612479565b60405180910390a35050565b60606006805480602002602001604051908101604052809291908181526020016000905b82821015610be1578382906000526020600020018054610b5490612920565b80601f0160208091040260200160405190810160405280929190818152602001828054610b8090612920565b8015610bcd5780601f10610ba257610100808354040283529160200191610bcd565b820191906000526020600020905b815481529060010190602001808311610bb057829003601f168201915b505050505081526020019060010190610b35565b50505050905090565b610bfb610bf5610f2a565b83610feb565b610c3a576040517f08c379a0000000000000000000000000000000000000000000000000000000008152600401610c3190612656565b60405180910390fd5b610c4684848484611325565b50505050565b6060610c5782610ebe565b610c96576040517f08c379a0000000000000000000000000000000000000000000000000000000008152600401610c8d90612616565b60405180910390fd5b6000610ca0611381565b90506000815111610cc05760405180602001604052806000815250610ceb565b80610cca84611398565b604051602001610cdb9291906123cc565b6040516020818303038152906040525b915050919050565b600781604051610d0391906123b5565b908152602001604051809103902060009054906101000a900460ff1615610d2957600080fd5b600681908060018154018082558091505060019003906000526020600020016000909190919091509080519060200190610d649291906118c2565b5060006001600680549050610d799190612836565b9050610d853382611545565b6001600783604051610d9791906123b5565b908152602001604051809103902060006101000a81548160ff0219169083151502179055505050565b6000600560008473ffffffffffffffffffffffffffffffffffffffff1673ffffffffffffffffffffffffffffffffffffffff16815260200190815260200160002060008373ffffffffffffffffffffffffffffffffffffffff1673ffffffffffffffffffffffffffffffffffffffff16815260200190815260200160002060009054906101000a900460ff16905092915050565b60007f01ffc9a7000000000000000000000000000000000000000000000000000000007bffffffffffffffffffffffffffffffffffffffffffffffffffffffff1916827bffffffffffffffffffffffffffffffffffffffffffffffffffffffff1916149050919050565b60008073ffffffffffffffffffffffffffffffffffffffff166002600084815260200190815260200160002060009054906101000a900473ffffffffffffffffffffffffffffffffffffffff1673ffffffffffffffffffffffffffffffffffffffff1614159050919050565b600033905090565b816004600083815260200190815260200160002060006101000a81548173ffffffffffffffffffffffffffffffffffffffff021916908373ffffffffffffffffffffffffffffffffffffffff160217905550808273ffffffffffffffffffffffffffffffffffffffff16610fa583610794565b73ffffffffffffffffffffffffffffffffffffffff167f8c5be1e5ebec7d5bd14f71427d1e84f3dd0314c0f7b2291e5b200ac8c7c3b92560405160405180910390a45050565b6000610ff682610ebe565b611035576040517f08c379a000000000000000000000000000000000000000000000000000000000815260040161102c90612536565b60405180910390fd5b600061104083610794565b90508073ffffffffffffffffffffffffffffffffffffffff168473ffffffffffffffffffffffffffffffffffffffff1614806110af57508373ffffffffffffffffffffffffffffffffffffffff16611097846104cb565b73ffffffffffffffffffffffffffffffffffffffff16145b806110c057506110bf8185610dc0565b5b91505092915050565b8273ffffffffffffffffffffffffffffffffffffffff166110e982610794565b73ffffffffffffffffffffffffffffffffffffffff161461113f576040517f08c379a0000000000000000000000000000000000000000000000000000000008152600401611136906125f6565b60405180910390fd5b600073ffffffffffffffffffffffffffffffffffffffff168273ffffffffffffffffffffffffffffffffffffffff1614156111af576040517f08c379a00000000000000000000000000000000000000000000000000000000081526004016111a6906124f6565b60405180910390fd5b6111ba838383611713565b6111c5600082610f32565b6001600360008573ffffffffffffffffffffffffffffffffffffffff1673ffffffffffffffffffffffffffffffffffffffff16815260200190815260200160002060008282546112159190612836565b925050819055506001600360008473ffffffffffffffffffffffffffffffffffffffff1673ffffffffffffffffffffffffffffffffffffffff168152602001908152602001600020600082825461126c91906127af565b92505081905550816002600083815260200190815260200160002060006101000a81548173ffffffffffffffffffffffffffffffffffffffff021916908373ffffffffffffffffffffffffffffffffffffffff160217905550808273ffffffffffffffffffffffffffffffffffffffff168473ffffffffffffffffffffffffffffffffffffffff167fddf252ad1be2c89b69c2b068fc378daa952ba7f163c4a11628f55a4df523b3ef60405160405180910390a4505050565b6113308484846110c9565b61133c84848484611718565b61137b576040517f08c379a0000000000000000000000000000000000000000000000000000000008152600401611372906124b6565b60405180910390fd5b50505050565b606060405180602001604052806000815250905090565b606060008214156113e0576040518060400160405280600181526020017f30000000000000000000000000000000000000000000000000000000000000008152509050611540565b600082905060005b600082146114125780806113fb90612952565b915050600a8261140b9190612805565b91506113e8565b60008167ffffffffffffffff811115611454577f4e487b7100000000000000000000000000000000000000000000000000000000600052604160045260246000fd5b6040519080825280601f01601f1916602001820160405280156114865781602001600182028036833780820191505090505b5090505b600085146115395760018261149f9190612836565b9150600a856114ae919061299b565b60306114ba91906127af565b60f81b8183815181106114f6577f4e487b7100000000000000000000000000000000000000000000000000000000600052603260045260246000fd5b60200101907effffffffffffffffffffffffffffffffffffffffffffffffffffffffffffff1916908160001a905350600a856115329190612805565b945061148a565b8093505050505b919050565b600073ffffffffffffffffffffffffffffffffffffffff168273ffffffffffffffffffffffffffffffffffffffff1614156115b5576040517f08c379a00000000000000000000000000000000000000000000000000000000081526004016115ac906125b6565b60405180910390fd5b6115be81610ebe565b156115fe576040517f08c379a00000000000000000000000000000000000000000000000000000000081526004016115f5906124d6565b60405180910390fd5b61160a60008383611713565b6001600360008473ffffffffffffffffffffffffffffffffffffffff1673ffffffffffffffffffffffffffffffffffffffff168152602001908152602001600020600082825461165a91906127af565b92505081905550816002600083815260200190815260200160002060006101000a81548173ffffffffffffffffffffffffffffffffffffffff021916908373ffffffffffffffffffffffffffffffffffffffff160217905550808273ffffffffffffffffffffffffffffffffffffffff16600073ffffffffffffffffffffffffffffffffffffffff167fddf252ad1be2c89b69c2b068fc378daa952ba7f163c4a11628f55a4df523b3ef60405160405180910390a45050565b505050565b60006117398473ffffffffffffffffffffffffffffffffffffffff166118af565b156118a2578373ffffffffffffffffffffffffffffffffffffffff1663150b7a02611762610f2a565b8786866040518563ffffffff1660e01b8152600401611784949392919061240b565b602060405180830381600087803b15801561179e57600080fd5b505af19250505080156117cf57506040513d601f19601f820116820180604052508101906117cc9190611c6e565b60015b611852573d80600081146117ff576040519150601f19603f3d011682016040523d82523d6000602084013e611804565b606091505b5060008151141561184a576040517f08c379a0000000000000000000000000000000000000000000000000000000008152600401611841906124b6565b60405180910390fd5b805181602001fd5b63150b7a0260e01b7bffffffffffffffffffffffffffffffffffffffffffffffffffffffff1916817bffffffffffffffffffffffffffffffffffffffffffffffffffffffff1916149150506118a7565b600190505b949350505050565b600080823b905060008111915050919050565b8280546118ce90612920565b90600052602060002090601f0160209004810192826118f05760008555611937565b82601f1061190957805160ff1916838001178555611937565b82800160010185558215611937579182015b8281111561193657825182559160200191906001019061191b565b5b5090506119449190611948565b5090565b5b80821115611961576000816000905550600101611949565b5090565b6000611978611973846126c2565b612691565b90508281526020810184848401111561199057600080fd5b61199b8482856128de565b509392505050565b60006119b66119b1846126f2565b612691565b9050828152602081018484840111156119ce57600080fd5b6119d98482856128de565b509392505050565b6000813590506119f081612a99565b92915050565b600081359050611a0581612ab0565b92915050565b600081359050611a1a81612ac7565b92915050565b600081519050611a2f81612ac7565b92915050565b600082601f830112611a4657600080fd5b8135611a56848260208601611965565b91505092915050565b600082601f830112611a7057600080fd5b8135611a808482602086016119a3565b91505092915050565b600081359050611a9881612ade565b92915050565b600060208284031215611ab057600080fd5b6000611abe848285016119e1565b91505092915050565b60008060408385031215611ada57600080fd5b6000611ae8858286016119e1565b9250506020611af9858286016119e1565b9150509250929050565b600080600060608486031215611b1857600080fd5b6000611b26868287016119e1565b9350506020611b37868287016119e1565b9250506040611b4886828701611a89565b9150509250925092565b60008060008060808587031215611b6857600080fd5b6000611b76878288016119e1565b9450506020611b87878288016119e1565b9350506040611b9887828801611a89565b925050606085013567ffffffffffffffff811115611bb557600080fd5b611bc187828801611a35565b91505092959194509250565b60008060408385031215611be057600080fd5b6000611bee858286016119e1565b9250506020611bff858286016119f6565b9150509250929050565b60008060408385031215611c1c57600080fd5b6000611c2a858286016119e1565b9250506020611c3b85828601611a89565b9150509250929050565b600060208284031215611c5757600080fd5b6000611c6584828501611a0b565b91505092915050565b600060208284031215611c8057600080fd5b6000611c8e84828501611a20565b91505092915050565b600060208284031215611ca957600080fd5b600082013567ffffffffffffffff811115611cc357600080fd5b611ccf84828501611a5f565b91505092915050565b600060208284031215611cea57600080fd5b6000611cf884828501611a89565b91505092915050565b6000611d0d8383611de1565b905092915050565b611d1e8161286a565b82525050565b6000611d2f82612732565b611d398185612760565b935083602082028501611d4b85612722565b8060005b85811015611d875784840389528151611d688582611d01565b9450611d7383612753565b925060208a01995050600181019050611d4f565b50829750879550505050505092915050565b611da28161287c565b82525050565b6000611db38261273d565b611dbd8185612771565b9350611dcd8185602086016128ed565b611dd681612a88565b840191505092915050565b6000611dec82612748565b611df68185612782565b9350611e068185602086016128ed565b611e0f81612a88565b840191505092915050565b6000611e2582612748565b611e2f8185612793565b9350611e3f8185602086016128ed565b611e4881612a88565b840191505092915050565b6000611e5e82612748565b611e6881856127a4565b9350611e788185602086016128ed565b80840191505092915050565b6000611e91603283612793565b91507f4552433732313a207472616e7366657220746f206e6f6e20455243373231526560008301527f63656976657220696d706c656d656e74657200000000000000000000000000006020830152604082019050919050565b6000611ef7601c83612793565b91507f4552433732313a20746f6b656e20616c7265616479206d696e746564000000006000830152602082019050919050565b6000611f37602483612793565b91507f4552433732313a207472616e7366657220746f20746865207a65726f2061646460008301527f72657373000000000000000000000000000000000000000000000000000000006020830152604082019050919050565b6000611f9d601983612793565b91507f4552433732313a20617070726f766520746f2063616c6c6572000000000000006000830152602082019050919050565b6000611fdd602c83612793565b91507f4552433732313a206f70657261746f7220717565727920666f72206e6f6e657860008301527f697374656e7420746f6b656e00000000000000000000000000000000000000006020830152604082019050919050565b6000612043603883612793565b91507f4552433732313a20617070726f76652063616c6c6572206973206e6f74206f7760008301527f6e6572206e6f7220617070726f76656420666f7220616c6c00000000000000006020830152604082019050919050565b60006120a9602a83612793565b91507f4552433732313a2062616c616e636520717565727920666f7220746865207a6560008301527f726f2061646472657373000000000000000000000000000000000000000000006020830152604082019050919050565b600061210f602983612793565b91507f4552433732313a206f776e657220717565727920666f72206e6f6e657869737460008301527f656e7420746f6b656e00000000000000000000000000000000000000000000006020830152604082019050919050565b6000612175602083612793565b91507f4552433732313a206d696e7420746f20746865207a65726f20616464726573736000830152602082019050919050565b60006121b5602c83612793565b91507f4552433732313a20617070726f76656420717565727920666f72206e6f6e657860008301527f697374656e7420746f6b656e00000000000000000000000000000000000000006020830152604082019050919050565b600061221b602983612793565b91507f4552433732313a207472616e73666572206f6620746f6b656e2074686174206960008301527f73206e6f74206f776e00000000000000000000000000000000000000000000006020830152604082019050919050565b6000612281602f83612793565b91507f4552433732314d657461646174613a2055524920717565727920666f72206e6f60008301527f6e6578697374656e7420746f6b656e00000000000000000000000000000000006020830152604082019050919050565b60006122e7602183612793565b91507f4552433732313a20617070726f76616c20746f2063757272656e74206f776e6560008301527f72000000000000000000000000000000000000000000000000000000000000006020830152604082019050919050565b600061234d603183612793565b91507f4552433732313a207472616e736665722063616c6c6572206973206e6f74206f60008301527f776e6572206e6f7220617070726f7665640000000000000000000000000000006020830152604082019050919050565b6123af816128d4565b82525050565b60006123c18284611e53565b915081905092915050565b60006123d88285611e53565b91506123e48284611e53565b91508190509392505050565b60006020820190506124056000830184611d15565b92915050565b60006080820190506124206000830187611d15565b61242d6020830186611d15565b61243a60408301856123a6565b818103606083015261244c8184611da8565b905095945050505050565b600060208201905081810360008301526124718184611d24565b905092915050565b600060208201905061248e6000830184611d99565b92915050565b600060208201905081810360008301526124ae8184611e1a565b905092915050565b600060208201905081810360008301526124cf81611e84565b9050919050565b600060208201905081810360008301526124ef81611eea565b9050919050565b6000602082019050818103600083015261250f81611f2a565b9050919050565b6000602082019050818103600083015261252f81611f90565b9050919050565b6000602082019050818103600083015261254f81611fd0565b9050919050565b6000602082019050818103600083015261256f81612036565b9050919050565b6000602082019050818103600083015261258f8161209c565b9050919050565b600060208201905081810360008301526125af81612102565b9050919050565b600060208201905081810360008301526125cf81612168565b9050919050565b600060208201905081810360008301526125ef816121a8565b9050919050565b6000602082019050818103600083015261260f8161220e565b9050919050565b6000602082019050818103600083015261262f81612274565b9050919050565b6000602082019050818103600083015261264f816122da565b9050919050565b6000602082019050818103600083015261266f81612340565b9050919050565b600060208201905061268b60008301846123a6565b92915050565b6000604051905081810181811067ffffffffffffffff821117156126b8576126b7612a59565b5b8060405250919050565b600067ffffffffffffffff8211156126dd576126dc612a59565b5b601f19601f8301169050602081019050919050565b600067ffffffffffffffff82111561270d5761270c612a59565b5b601f19601f8301169050602081019050919050565b6000819050602082019050919050565b600081519050919050565b600081519050919050565b600081519050919050565b6000602082019050919050565b600082825260208201905092915050565b600082825260208201905092915050565b600082825260208201905092915050565b600082825260208201905092915050565b600081905092915050565b60006127ba826128d4565b91506127c5836128d4565b9250827fffffffffffffffffffffffffffffffffffffffffffffffffffffffffffffffff038211156127fa576127f96129cc565b5b828201905092915050565b6000612810826128d4565b915061281b836128d4565b92508261282b5761282a6129fb565b5b828204905092915050565b6000612841826128d4565b915061284c836128d4565b92508282101561285f5761285e6129cc565b5b828203905092915050565b6000612875826128b4565b9050919050565b60008115159050919050565b60007fffffffff0000000000000000000000000000000000000000000000000000000082169050919050565b600073ffffffffffffffffffffffffffffffffffffffff82169050919050565b6000819050919050565b82818337600083830152505050565b60005b8381101561290b5780820151818401526020810190506128f0565b8381111561291a576000848401525b50505050565b6000600282049050600182168061293857607f821691505b6020821081141561294c5761294b612a2a565b5b50919050565b600061295d826128d4565b91507fffffffffffffffffffffffffffffffffffffffffffffffffffffffffffffffff8214156129905761298f6129cc565b5b600182019050919050565b60006129a6826128d4565b91506129b1836128d4565b9250826129c1576129c06129fb565b5b828206905092915050565b7f4e487b7100000000000000000000000000000000000000000000000000000000600052601160045260246000fd5b7f4e487b7100000000000000000000000000000000000000000000000000000000600052601260045260246000fd5b7f4e487b7100000000000000000000000000000000000000000000000000000000600052602260045260246000fd5b7f4e487b7100000000000000000000000000000000000000000000000000000000600052604160045260246000fd5b6000601f19601f8301169050919050565b612aa28161286a565b8114612aad57600080fd5b50565b612ab98161287c565b8114612ac457600080fd5b50565b612ad081612888565b8114612adb57600080fd5b50565b612ae7816128d4565b8114612af257600080fd5b5056fea264697066735822122035d380546af97736de192e91e1be6571f8e6a2fb133be45c1095048145d19d3c64736f6c63430008000033",
  "immutableReferences": {},
  "source": "// SPDX-License-Identifier: MIT\npragma solidity ^0.8.0;\n\nimport \"@openzeppelin/contracts/token/ERC721/ERC721.sol\";\n\n contract Artwork is ERC721 {\n  string[] public artworks;\n  mapping(string => bool) _artworkExists;\n\n  \n  constructor() public ERC721(\"Artwork\", \"ARTWORK\") {\n  }\n  \n  function getTokens() public view returns (string [] memory) { return artworks;}\n  \n  function mint(string memory _artwork) public {\n    require(!_artworkExists[_artwork]);\n    artworks.push(_artwork);\n    uint _id = artworks.length - 1;\n    _mint(msg.sender, _id);\n    _artworkExists[_artwork] = true;\n  }\n}",
  "sourcePath": "/Users/franespeche/e-art/front/src/contracts/Artwork.sol",
  "compiler": {
    "name": "solc",
    "version": "0.8.0+commit.c7dfd78e.Emscripten.clang"
  },
  "schemaVersion": "3.3.4",
  "updatedAt": "2021-04-15T16:00:23.924Z",
  "devdoc": {
    "kind": "dev",
    "methods": {
      "approve(address,uint256)": {
        "details": "See {IERC721-approve}."
      },
      "balanceOf(address)": {
        "details": "See {IERC721-balanceOf}."
      },
      "getApproved(uint256)": {
        "details": "See {IERC721-getApproved}."
      },
      "isApprovedForAll(address,address)": {
        "details": "See {IERC721-isApprovedForAll}."
      },
      "name()": {
        "details": "See {IERC721Metadata-name}."
      },
      "ownerOf(uint256)": {
        "details": "See {IERC721-ownerOf}."
      },
      "safeTransferFrom(address,address,uint256)": {
        "details": "See {IERC721-safeTransferFrom}."
      },
      "safeTransferFrom(address,address,uint256,bytes)": {
        "details": "See {IERC721-safeTransferFrom}."
      },
      "setApprovalForAll(address,bool)": {
        "details": "See {IERC721-setApprovalForAll}."
      },
      "supportsInterface(bytes4)": {
        "details": "See {IERC165-supportsInterface}."
      },
      "symbol()": {
        "details": "See {IERC721Metadata-symbol}."
      },
      "tokenURI(uint256)": {
        "details": "See {IERC721Metadata-tokenURI}."
      },
      "transferFrom(address,address,uint256)": {
        "details": "See {IERC721-transferFrom}."
      }
    },
    "version": 1
  },
  "userdoc": {
    "kind": "user",
    "methods": {},
    "version": 1
  }
}