{
  "contractName": "Artwork",
  "abi": [
    {
      "inputs": [],
      "stateMutability": "nonpayable",
      "type": "constructor"
    },
    {
      "anonymous": false,
      "inputs": [
        {
          "indexed": true,
          "internalType": "address",
          "name": "owner",
          "type": "address"
        },
        {
          "indexed": true,
          "internalType": "address",
          "name": "approved",
          "type": "address"
        },
        {
          "indexed": true,
          "internalType": "uint256",
          "name": "tokenId",
          "type": "uint256"
        }
      ],
      "name": "Approval",
      "type": "event"
    },
    {
      "anonymous": false,
      "inputs": [
        {
          "indexed": true,
          "internalType": "address",
          "name": "owner",
          "type": "address"
        },
        {
          "indexed": true,
          "internalType": "address",
          "name": "operator",
          "type": "address"
        },
        {
          "indexed": false,
          "internalType": "bool",
          "name": "approved",
          "type": "bool"
        }
      ],
      "name": "ApprovalForAll",
      "type": "event"
    },
    {
      "anonymous": false,
      "inputs": [
        {
          "indexed": true,
          "internalType": "address",
          "name": "from",
          "type": "address"
        },
        {
          "indexed": true,
          "internalType": "address",
          "name": "to",
          "type": "address"
        },
        {
          "indexed": true,
          "internalType": "uint256",
          "name": "tokenId",
          "type": "uint256"
        }
      ],
      "name": "Transfer",
      "type": "event"
    },
    {
      "inputs": [
        {
          "internalType": "address",
          "name": "to",
          "type": "address"
        },
        {
          "internalType": "uint256",
          "name": "tokenId",
          "type": "uint256"
        }
      ],
      "name": "approve",
      "outputs": [],
      "stateMutability": "nonpayable",
      "type": "function"
    },
    {
      "inputs": [
        {
          "internalType": "uint256",
          "name": "",
          "type": "uint256"
        }
      ],
      "name": "artworks",
      "outputs": [
        {
          "internalType": "string",
          "name": "",
          "type": "string"
        }
      ],
      "stateMutability": "view",
      "type": "function",
      "constant": true
    },
    {
      "inputs": [
        {
          "internalType": "address",
          "name": "owner",
          "type": "address"
        }
      ],
      "name": "balanceOf",
      "outputs": [
        {
          "internalType": "uint256",
          "name": "",
          "type": "uint256"
        }
      ],
      "stateMutability": "view",
      "type": "function",
      "constant": true
    },
    {
      "inputs": [
        {
          "internalType": "uint256",
          "name": "tokenId",
          "type": "uint256"
        }
      ],
      "name": "getApproved",
      "outputs": [
        {
          "internalType": "address",
          "name": "",
          "type": "address"
        }
      ],
      "stateMutability": "view",
      "type": "function",
      "constant": true
    },
    {
      "inputs": [
        {
          "internalType": "address",
          "name": "owner",
          "type": "address"
        },
        {
          "internalType": "address",
          "name": "operator",
          "type": "address"
        }
      ],
      "name": "isApprovedForAll",
      "outputs": [
        {
          "internalType": "bool",
          "name": "",
          "type": "bool"
        }
      ],
      "stateMutability": "view",
      "type": "function",
      "constant": true
    },
    {
      "inputs": [],
      "name": "name",
      "outputs": [
        {
          "internalType": "string",
          "name": "",
          "type": "string"
        }
      ],
      "stateMutability": "view",
      "type": "function",
      "constant": true
    },
    {
      "inputs": [
        {
          "internalType": "uint256",
          "name": "tokenId",
          "type": "uint256"
        }
      ],
      "name": "ownerOf",
      "outputs": [
        {
          "internalType": "address",
          "name": "",
          "type": "address"
        }
      ],
      "stateMutability": "view",
      "type": "function",
      "constant": true
    },
    {
      "inputs": [
        {
          "internalType": "address",
          "name": "from",
          "type": "address"
        },
        {
          "internalType": "address",
          "name": "to",
          "type": "address"
        },
        {
          "internalType": "uint256",
          "name": "tokenId",
          "type": "uint256"
        }
      ],
      "name": "safeTransferFrom",
      "outputs": [],
      "stateMutability": "nonpayable",
      "type": "function"
    },
    {
      "inputs": [
        {
          "internalType": "address",
          "name": "from",
          "type": "address"
        },
        {
          "internalType": "address",
          "name": "to",
          "type": "address"
        },
        {
          "internalType": "uint256",
          "name": "tokenId",
          "type": "uint256"
        },
        {
          "internalType": "bytes",
          "name": "_data",
          "type": "bytes"
        }
      ],
      "name": "safeTransferFrom",
      "outputs": [],
      "stateMutability": "nonpayable",
      "type": "function"
    },
    {
      "inputs": [
        {
          "internalType": "address",
          "name": "operator",
          "type": "address"
        },
        {
          "internalType": "bool",
          "name": "approved",
          "type": "bool"
        }
      ],
      "name": "setApprovalForAll",
      "outputs": [],
      "stateMutability": "nonpayable",
      "type": "function"
    },
    {
      "inputs": [
        {
          "internalType": "bytes4",
          "name": "interfaceId",
          "type": "bytes4"
        }
      ],
      "name": "supportsInterface",
      "outputs": [
        {
          "internalType": "bool",
          "name": "",
          "type": "bool"
        }
      ],
      "stateMutability": "view",
      "type": "function",
      "constant": true
    },
    {
      "inputs": [],
      "name": "symbol",
      "outputs": [
        {
          "internalType": "string",
          "name": "",
          "type": "string"
        }
      ],
      "stateMutability": "view",
      "type": "function",
      "constant": true
    },
    {
      "inputs": [
        {
          "internalType": "uint256",
          "name": "tokenId",
          "type": "uint256"
        }
      ],
      "name": "tokenURI",
      "outputs": [
        {
          "internalType": "string",
          "name": "",
          "type": "string"
        }
      ],
      "stateMutability": "view",
      "type": "function",
      "constant": true
    },
    {
      "inputs": [
        {
          "internalType": "address",
          "name": "from",
          "type": "address"
        },
        {
          "internalType": "address",
          "name": "to",
          "type": "address"
        },
        {
          "internalType": "uint256",
          "name": "tokenId",
          "type": "uint256"
        }
      ],
      "name": "transferFrom",
      "outputs": [],
      "stateMutability": "nonpayable",
      "type": "function"
    },
    {
      "inputs": [
        {
          "internalType": "string",
          "name": "_artwork",
          "type": "string"
        }
      ],
      "name": "mint",
      "outputs": [],
      "stateMutability": "nonpayable",
      "type": "function"
    }
  ],
  "bytecode": "0x60806040523480156200001157600080fd5b506040518060400160405280600781526020017f417274776f726b000000000000000000000000000000000000000000000000008152506040518060400160405280600781526020017f415254574f524b00000000000000000000000000000000000000000000000000815250816000908051906020019062000096929190620000b8565b508060019080519060200190620000af929190620000b8565b505050620001cd565b828054620000c69062000168565b90600052602060002090601f016020900481019282620000ea576000855562000136565b82601f106200010557805160ff191683800117855562000136565b8280016001018555821562000136579182015b828111156200013557825182559160200191906001019062000118565b5b50905062000145919062000149565b5090565b5b80821115620001645760008160009055506001016200014a565b5090565b600060028204905060018216806200018157607f821691505b602082108114156200019857620001976200019e565b5b50919050565b7f4e487b7100000000000000000000000000000000000000000000000000000000600052602260045260246000fd5b6128fb80620001dd6000396000f3fe608060405234801561001057600080fd5b50600436106100f55760003560e01c80636352211e11610097578063b88d4fde11610066578063b88d4fde14610296578063c87b56dd146102b2578063d85d3d27146102e2578063e985e9c5146102fe576100f5565b80636352211e146101fc57806370a082311461022c57806395d89b411461025c578063a22cb4651461027a576100f5565b8063095ea7b3116100d3578063095ea7b31461017857806323b872dd1461019457806342842e0e146101b05780634b602673146101cc576100f5565b806301ffc9a7146100fa57806306fdde031461012a578063081812fc14610148575b600080fd5b610114600480360381019061010f9190611b43565b61032e565b6040516101219190612293565b60405180910390f35b610132610410565b60405161013f91906122ae565b60405180910390f35b610162600480360381019061015d9190611bd6565b6104a2565b60405161016f919061222c565b60405180910390f35b610192600480360381019061018d9190611b07565b610527565b005b6101ae60048036038101906101a99190611a01565b61063f565b005b6101ca60048036038101906101c59190611a01565b61069f565b005b6101e660048036038101906101e19190611bd6565b6106bf565b6040516101f391906122ae565b60405180910390f35b61021660048036038101906102119190611bd6565b61076b565b604051610223919061222c565b60405180910390f35b6102466004803603810190610241919061199c565b61081d565b6040516102539190612490565b60405180910390f35b6102646108d5565b60405161027191906122ae565b60405180910390f35b610294600480360381019061028f9190611acb565b610967565b005b6102b060048036038101906102ab9190611a50565b610ae8565b005b6102cc60048036038101906102c79190611bd6565b610b4a565b6040516102d991906122ae565b60405180910390f35b6102fc60048036038101906102f79190611b95565b610bf1565b005b610318600480360381019061031391906119c5565b610cbe565b6040516103259190612293565b60405180910390f35b60007f80ac58cd000000000000000000000000000000000000000000000000000000007bffffffffffffffffffffffffffffffffffffffffffffffffffffffff1916827bffffffffffffffffffffffffffffffffffffffffffffffffffffffff191614806103f957507f5b5e139f000000000000000000000000000000000000000000000000000000007bffffffffffffffffffffffffffffffffffffffffffffffffffffffff1916827bffffffffffffffffffffffffffffffffffffffffffffffffffffffff1916145b80610409575061040882610d52565b5b9050919050565b60606000805461041f906126f0565b80601f016020809104026020016040519081016040528092919081815260200182805461044b906126f0565b80156104985780601f1061046d57610100808354040283529160200191610498565b820191906000526020600020905b81548152906001019060200180831161047b57829003601f168201915b5050505050905090565b60006104ad82610dbc565b6104ec576040517f08c379a00000000000000000000000000000000000000000000000000000000081526004016104e3906123f0565b60405180910390fd5b6004600083815260200190815260200160002060009054906101000a900473ffffffffffffffffffffffffffffffffffffffff169050919050565b60006105328261076b565b90508073ffffffffffffffffffffffffffffffffffffffff168373ffffffffffffffffffffffffffffffffffffffff1614156105a3576040517f08c379a000000000000000000000000000000000000000000000000000000000815260040161059a90612450565b60405180910390fd5b8073ffffffffffffffffffffffffffffffffffffffff166105c2610e28565b73ffffffffffffffffffffffffffffffffffffffff1614806105f157506105f0816105eb610e28565b610cbe565b5b610630576040517f08c379a000000000000000000000000000000000000000000000000000000000815260040161062790612370565b60405180910390fd5b61063a8383610e30565b505050565b61065061064a610e28565b82610ee9565b61068f576040517f08c379a000000000000000000000000000000000000000000000000000000000815260040161068690612470565b60405180910390fd5b61069a838383610fc7565b505050565b6106ba83838360405180602001604052806000815250610ae8565b505050565b600681815481106106cf57600080fd5b9060005260206000200160009150905080546106ea906126f0565b80601f0160208091040260200160405190810160405280929190818152602001828054610716906126f0565b80156107635780601f1061073857610100808354040283529160200191610763565b820191906000526020600020905b81548152906001019060200180831161074657829003601f168201915b505050505081565b6000806002600084815260200190815260200160002060009054906101000a900473ffffffffffffffffffffffffffffffffffffffff169050600073ffffffffffffffffffffffffffffffffffffffff168173ffffffffffffffffffffffffffffffffffffffff161415610814576040517f08c379a000000000000000000000000000000000000000000000000000000000815260040161080b906123b0565b60405180910390fd5b80915050919050565b60008073ffffffffffffffffffffffffffffffffffffffff168273ffffffffffffffffffffffffffffffffffffffff16141561088e576040517f08c379a000000000000000000000000000000000000000000000000000000000815260040161088590612390565b60405180910390fd5b600360008373ffffffffffffffffffffffffffffffffffffffff1673ffffffffffffffffffffffffffffffffffffffff168152602001908152602001600020549050919050565b6060600180546108e4906126f0565b80601f0160208091040260200160405190810160405280929190818152602001828054610910906126f0565b801561095d5780601f106109325761010080835404028352916020019161095d565b820191906000526020600020905b81548152906001019060200180831161094057829003601f168201915b5050505050905090565b61096f610e28565b73ffffffffffffffffffffffffffffffffffffffff168273ffffffffffffffffffffffffffffffffffffffff1614156109dd576040517f08c379a00000000000000000000000000000000000000000000000000000000081526004016109d490612330565b60405180910390fd5b80600560006109ea610e28565b73ffffffffffffffffffffffffffffffffffffffff1673ffffffffffffffffffffffffffffffffffffffff16815260200190815260200160002060008473ffffffffffffffffffffffffffffffffffffffff1673ffffffffffffffffffffffffffffffffffffffff16815260200190815260200160002060006101000a81548160ff0219169083151502179055508173ffffffffffffffffffffffffffffffffffffffff16610a97610e28565b73ffffffffffffffffffffffffffffffffffffffff167f17307eab39ab6107e8899845ad3d59bd9653f200f220920489ca2b5937696c3183604051610adc9190612293565b60405180910390a35050565b610af9610af3610e28565b83610ee9565b610b38576040517f08c379a0000000000000000000000000000000000000000000000000000000008152600401610b2f90612470565b60405180910390fd5b610b4484848484611223565b50505050565b6060610b5582610dbc565b610b94576040517f08c379a0000000000000000000000000000000000000000000000000000000008152600401610b8b90612430565b60405180910390fd5b6000610b9e61127f565b90506000815111610bbe5760405180602001604052806000815250610be9565b80610bc884611296565b604051602001610bd9929190612208565b6040516020818303038152906040525b915050919050565b600781604051610c0191906121f1565b908152602001604051809103902060009054906101000a900460ff1615610c2757600080fd5b600681908060018154018082558091505060019003906000526020600020016000909190919091509080519060200190610c629291906117c0565b5060006001600680549050610c779190612606565b9050610c833382611443565b6001600783604051610c9591906121f1565b908152602001604051809103902060006101000a81548160ff0219169083151502179055505050565b6000600560008473ffffffffffffffffffffffffffffffffffffffff1673ffffffffffffffffffffffffffffffffffffffff16815260200190815260200160002060008373ffffffffffffffffffffffffffffffffffffffff1673ffffffffffffffffffffffffffffffffffffffff16815260200190815260200160002060009054906101000a900460ff16905092915050565b60007f01ffc9a7000000000000000000000000000000000000000000000000000000007bffffffffffffffffffffffffffffffffffffffffffffffffffffffff1916827bffffffffffffffffffffffffffffffffffffffffffffffffffffffff1916149050919050565b60008073ffffffffffffffffffffffffffffffffffffffff166002600084815260200190815260200160002060009054906101000a900473ffffffffffffffffffffffffffffffffffffffff1673ffffffffffffffffffffffffffffffffffffffff1614159050919050565b600033905090565b816004600083815260200190815260200160002060006101000a81548173ffffffffffffffffffffffffffffffffffffffff021916908373ffffffffffffffffffffffffffffffffffffffff160217905550808273ffffffffffffffffffffffffffffffffffffffff16610ea38361076b565b73ffffffffffffffffffffffffffffffffffffffff167f8c5be1e5ebec7d5bd14f71427d1e84f3dd0314c0f7b2291e5b200ac8c7c3b92560405160405180910390a45050565b6000610ef482610dbc565b610f33576040517f08c379a0000000000000000000000000000000000000000000000000000000008152600401610f2a90612350565b60405180910390fd5b6000610f3e8361076b565b90508073ffffffffffffffffffffffffffffffffffffffff168473ffffffffffffffffffffffffffffffffffffffff161480610fad57508373ffffffffffffffffffffffffffffffffffffffff16610f95846104a2565b73ffffffffffffffffffffffffffffffffffffffff16145b80610fbe5750610fbd8185610cbe565b5b91505092915050565b8273ffffffffffffffffffffffffffffffffffffffff16610fe78261076b565b73ffffffffffffffffffffffffffffffffffffffff161461103d576040517f08c379a000000000000000000000000000000000000000000000000000000000815260040161103490612410565b60405180910390fd5b600073ffffffffffffffffffffffffffffffffffffffff168273ffffffffffffffffffffffffffffffffffffffff1614156110ad576040517f08c379a00000000000000000000000000000000000000000000000000000000081526004016110a490612310565b60405180910390fd5b6110b8838383611611565b6110c3600082610e30565b6001600360008573ffffffffffffffffffffffffffffffffffffffff1673ffffffffffffffffffffffffffffffffffffffff16815260200190815260200160002060008282546111139190612606565b925050819055506001600360008473ffffffffffffffffffffffffffffffffffffffff1673ffffffffffffffffffffffffffffffffffffffff168152602001908152602001600020600082825461116a919061257f565b92505081905550816002600083815260200190815260200160002060006101000a81548173ffffffffffffffffffffffffffffffffffffffff021916908373ffffffffffffffffffffffffffffffffffffffff160217905550808273ffffffffffffffffffffffffffffffffffffffff168473ffffffffffffffffffffffffffffffffffffffff167fddf252ad1be2c89b69c2b068fc378daa952ba7f163c4a11628f55a4df523b3ef60405160405180910390a4505050565b61122e848484610fc7565b61123a84848484611616565b611279576040517f08c379a0000000000000000000000000000000000000000000000000000000008152600401611270906122d0565b60405180910390fd5b50505050565b606060405180602001604052806000815250905090565b606060008214156112de576040518060400160405280600181526020017f3000000000000000000000000000000000000000000000000000000000000000815250905061143e565b600082905060005b600082146113105780806112f990612722565b915050600a8261130991906125d5565b91506112e6565b60008167ffffffffffffffff811115611352577f4e487b7100000000000000000000000000000000000000000000000000000000600052604160045260246000fd5b6040519080825280601f01601f1916602001820160405280156113845781602001600182028036833780820191505090505b5090505b600085146114375760018261139d9190612606565b9150600a856113ac919061276b565b60306113b8919061257f565b60f81b8183815181106113f4577f4e487b7100000000000000000000000000000000000000000000000000000000600052603260045260246000fd5b60200101907effffffffffffffffffffffffffffffffffffffffffffffffffffffffffffff1916908160001a905350600a8561143091906125d5565b9450611388565b8093505050505b919050565b600073ffffffffffffffffffffffffffffffffffffffff168273ffffffffffffffffffffffffffffffffffffffff1614156114b3576040517f08c379a00000000000000000000000000000000000000000000000000000000081526004016114aa906123d0565b60405180910390fd5b6114bc81610dbc565b156114fc576040517f08c379a00000000000000000000000000000000000000000000000000000000081526004016114f3906122f0565b60405180910390fd5b61150860008383611611565b6001600360008473ffffffffffffffffffffffffffffffffffffffff1673ffffffffffffffffffffffffffffffffffffffff1681526020019081526020016000206000828254611558919061257f565b92505081905550816002600083815260200190815260200160002060006101000a81548173ffffffffffffffffffffffffffffffffffffffff021916908373ffffffffffffffffffffffffffffffffffffffff160217905550808273ffffffffffffffffffffffffffffffffffffffff16600073ffffffffffffffffffffffffffffffffffffffff167fddf252ad1be2c89b69c2b068fc378daa952ba7f163c4a11628f55a4df523b3ef60405160405180910390a45050565b505050565b60006116378473ffffffffffffffffffffffffffffffffffffffff166117ad565b156117a0578373ffffffffffffffffffffffffffffffffffffffff1663150b7a02611660610e28565b8786866040518563ffffffff1660e01b81526004016116829493929190612247565b602060405180830381600087803b15801561169c57600080fd5b505af19250505080156116cd57506040513d601f19601f820116820180604052508101906116ca9190611b6c565b60015b611750573d80600081146116fd576040519150601f19603f3d011682016040523d82523d6000602084013e611702565b606091505b50600081511415611748576040517f08c379a000000000000000000000000000000000000000000000000000000000815260040161173f906122d0565b60405180910390fd5b805181602001fd5b63150b7a0260e01b7bffffffffffffffffffffffffffffffffffffffffffffffffffffffff1916817bffffffffffffffffffffffffffffffffffffffffffffffffffffffff1916149150506117a5565b600190505b949350505050565b600080823b905060008111915050919050565b8280546117cc906126f0565b90600052602060002090601f0160209004810192826117ee5760008555611835565b82601f1061180757805160ff1916838001178555611835565b82800160010185558215611835579182015b82811115611834578251825591602001919060010190611819565b5b5090506118429190611846565b5090565b5b8082111561185f576000816000905550600101611847565b5090565b6000611876611871846124dc565b6124ab565b90508281526020810184848401111561188e57600080fd5b6118998482856126ae565b509392505050565b60006118b46118af8461250c565b6124ab565b9050828152602081018484840111156118cc57600080fd5b6118d78482856126ae565b509392505050565b6000813590506118ee81612869565b92915050565b60008135905061190381612880565b92915050565b60008135905061191881612897565b92915050565b60008151905061192d81612897565b92915050565b600082601f83011261194457600080fd5b8135611954848260208601611863565b91505092915050565b600082601f83011261196e57600080fd5b813561197e8482602086016118a1565b91505092915050565b600081359050611996816128ae565b92915050565b6000602082840312156119ae57600080fd5b60006119bc848285016118df565b91505092915050565b600080604083850312156119d857600080fd5b60006119e6858286016118df565b92505060206119f7858286016118df565b9150509250929050565b600080600060608486031215611a1657600080fd5b6000611a24868287016118df565b9350506020611a35868287016118df565b9250506040611a4686828701611987565b9150509250925092565b60008060008060808587031215611a6657600080fd5b6000611a74878288016118df565b9450506020611a85878288016118df565b9350506040611a9687828801611987565b925050606085013567ffffffffffffffff811115611ab357600080fd5b611abf87828801611933565b91505092959194509250565b60008060408385031215611ade57600080fd5b6000611aec858286016118df565b9250506020611afd858286016118f4565b9150509250929050565b60008060408385031215611b1a57600080fd5b6000611b28858286016118df565b9250506020611b3985828601611987565b9150509250929050565b600060208284031215611b5557600080fd5b6000611b6384828501611909565b91505092915050565b600060208284031215611b7e57600080fd5b6000611b8c8482850161191e565b91505092915050565b600060208284031215611ba757600080fd5b600082013567ffffffffffffffff811115611bc157600080fd5b611bcd8482850161195d565b91505092915050565b600060208284031215611be857600080fd5b6000611bf684828501611987565b91505092915050565b611c088161263a565b82525050565b611c178161264c565b82525050565b6000611c288261253c565b611c328185612552565b9350611c428185602086016126bd565b611c4b81612858565b840191505092915050565b6000611c6182612547565b611c6b8185612563565b9350611c7b8185602086016126bd565b611c8481612858565b840191505092915050565b6000611c9a82612547565b611ca48185612574565b9350611cb48185602086016126bd565b80840191505092915050565b6000611ccd603283612563565b91507f4552433732313a207472616e7366657220746f206e6f6e20455243373231526560008301527f63656976657220696d706c656d656e74657200000000000000000000000000006020830152604082019050919050565b6000611d33601c83612563565b91507f4552433732313a20746f6b656e20616c7265616479206d696e746564000000006000830152602082019050919050565b6000611d73602483612563565b91507f4552433732313a207472616e7366657220746f20746865207a65726f2061646460008301527f72657373000000000000000000000000000000000000000000000000000000006020830152604082019050919050565b6000611dd9601983612563565b91507f4552433732313a20617070726f766520746f2063616c6c6572000000000000006000830152602082019050919050565b6000611e19602c83612563565b91507f4552433732313a206f70657261746f7220717565727920666f72206e6f6e657860008301527f697374656e7420746f6b656e00000000000000000000000000000000000000006020830152604082019050919050565b6000611e7f603883612563565b91507f4552433732313a20617070726f76652063616c6c6572206973206e6f74206f7760008301527f6e6572206e6f7220617070726f76656420666f7220616c6c00000000000000006020830152604082019050919050565b6000611ee5602a83612563565b91507f4552433732313a2062616c616e636520717565727920666f7220746865207a6560008301527f726f2061646472657373000000000000000000000000000000000000000000006020830152604082019050919050565b6000611f4b602983612563565b91507f4552433732313a206f776e657220717565727920666f72206e6f6e657869737460008301527f656e7420746f6b656e00000000000000000000000000000000000000000000006020830152604082019050919050565b6000611fb1602083612563565b91507f4552433732313a206d696e7420746f20746865207a65726f20616464726573736000830152602082019050919050565b6000611ff1602c83612563565b91507f4552433732313a20617070726f76656420717565727920666f72206e6f6e657860008301527f697374656e7420746f6b656e00000000000000000000000000000000000000006020830152604082019050919050565b6000612057602983612563565b91507f4552433732313a207472616e73666572206f6620746f6b656e2074686174206960008301527f73206e6f74206f776e00000000000000000000000000000000000000000000006020830152604082019050919050565b60006120bd602f83612563565b91507f4552433732314d657461646174613a2055524920717565727920666f72206e6f60008301527f6e6578697374656e7420746f6b656e00000000000000000000000000000000006020830152604082019050919050565b6000612123602183612563565b91507f4552433732313a20617070726f76616c20746f2063757272656e74206f776e6560008301527f72000000000000000000000000000000000000000000000000000000000000006020830152604082019050919050565b6000612189603183612563565b91507f4552433732313a207472616e736665722063616c6c6572206973206e6f74206f60008301527f776e6572206e6f7220617070726f7665640000000000000000000000000000006020830152604082019050919050565b6121eb816126a4565b82525050565b60006121fd8284611c8f565b915081905092915050565b60006122148285611c8f565b91506122208284611c8f565b91508190509392505050565b60006020820190506122416000830184611bff565b92915050565b600060808201905061225c6000830187611bff565b6122696020830186611bff565b61227660408301856121e2565b81810360608301526122888184611c1d565b905095945050505050565b60006020820190506122a86000830184611c0e565b92915050565b600060208201905081810360008301526122c88184611c56565b905092915050565b600060208201905081810360008301526122e981611cc0565b9050919050565b6000602082019050818103600083015261230981611d26565b9050919050565b6000602082019050818103600083015261232981611d66565b9050919050565b6000602082019050818103600083015261234981611dcc565b9050919050565b6000602082019050818103600083015261236981611e0c565b9050919050565b6000602082019050818103600083015261238981611e72565b9050919050565b600060208201905081810360008301526123a981611ed8565b9050919050565b600060208201905081810360008301526123c981611f3e565b9050919050565b600060208201905081810360008301526123e981611fa4565b9050919050565b6000602082019050818103600083015261240981611fe4565b9050919050565b600060208201905081810360008301526124298161204a565b9050919050565b60006020820190508181036000830152612449816120b0565b9050919050565b6000602082019050818103600083015261246981612116565b9050919050565b600060208201905081810360008301526124898161217c565b9050919050565b60006020820190506124a560008301846121e2565b92915050565b6000604051905081810181811067ffffffffffffffff821117156124d2576124d1612829565b5b8060405250919050565b600067ffffffffffffffff8211156124f7576124f6612829565b5b601f19601f8301169050602081019050919050565b600067ffffffffffffffff82111561252757612526612829565b5b601f19601f8301169050602081019050919050565b600081519050919050565b600081519050919050565b600082825260208201905092915050565b600082825260208201905092915050565b600081905092915050565b600061258a826126a4565b9150612595836126a4565b9250827fffffffffffffffffffffffffffffffffffffffffffffffffffffffffffffffff038211156125ca576125c961279c565b5b828201905092915050565b60006125e0826126a4565b91506125eb836126a4565b9250826125fb576125fa6127cb565b5b828204905092915050565b6000612611826126a4565b915061261c836126a4565b92508282101561262f5761262e61279c565b5b828203905092915050565b600061264582612684565b9050919050565b60008115159050919050565b60007fffffffff0000000000000000000000000000000000000000000000000000000082169050919050565b600073ffffffffffffffffffffffffffffffffffffffff82169050919050565b6000819050919050565b82818337600083830152505050565b60005b838110156126db5780820151818401526020810190506126c0565b838111156126ea576000848401525b50505050565b6000600282049050600182168061270857607f821691505b6020821081141561271c5761271b6127fa565b5b50919050565b600061272d826126a4565b91507fffffffffffffffffffffffffffffffffffffffffffffffffffffffffffffffff8214156127605761275f61279c565b5b600182019050919050565b6000612776826126a4565b9150612781836126a4565b925082612791576127906127cb565b5b828206905092915050565b7f4e487b7100000000000000000000000000000000000000000000000000000000600052601160045260246000fd5b7f4e487b7100000000000000000000000000000000000000000000000000000000600052601260045260246000fd5b7f4e487b7100000000000000000000000000000000000000000000000000000000600052602260045260246000fd5b7f4e487b7100000000000000000000000000000000000000000000000000000000600052604160045260246000fd5b6000601f19601f8301169050919050565b6128728161263a565b811461287d57600080fd5b50565b6128898161264c565b811461289457600080fd5b50565b6128a081612658565b81146128ab57600080fd5b50565b6128b7816126a4565b81146128c257600080fd5b5056fea26469706673582212208742df332422eb46c5b0478c329c60ce28a2bae3f0ac94a04b5c739817b9921964736f6c63430008000033",
  "immutableReferences": {},
  "source": "// SPDX-License-Identifier: MIT\npragma solidity ^0.8.0;\n\nimport \"@openzeppelin/contracts/token/ERC721/ERC721.sol\";\n\n contract Artwork is ERC721 {\n  string[] public artworks;\n  mapping(string => bool) _artworkExists;\n\n  constructor() public ERC721(\"Artwork\", \"ARTWORK\") {\n  }\n  \n  function mint(string memory _artwork) public {\n    require(!_artworkExists[_artwork]);\n    artworks.push(_artwork);\n    uint _id = artworks.length - 1;\n    _mint(msg.sender, _id);\n    _artworkExists[_artwork] = true;\n  }\n}",
  "sourcePath": "/home/pauladayn/e-art/front/contracts/Artwork.sol",
  "compiler": {
    "name": "solc",
    "version": "0.8.0+commit.c7dfd78e.Emscripten.clang"
  },
  "schemaVersion": "3.3.4",
  "updatedAt": "2021-04-13T18:24:48.036Z",
  "networkType": "ethereum",
  "devdoc": {
    "kind": "dev",
    "methods": {
      "approve(address,uint256)": {
        "details": "See {IERC721-approve}."
      },
      "balanceOf(address)": {
        "details": "See {IERC721-balanceOf}."
      },
      "getApproved(uint256)": {
        "details": "See {IERC721-getApproved}."
      },
      "isApprovedForAll(address,address)": {
        "details": "See {IERC721-isApprovedForAll}."
      },
      "name()": {
        "details": "See {IERC721Metadata-name}."
      },
      "ownerOf(uint256)": {
        "details": "See {IERC721-ownerOf}."
      },
      "safeTransferFrom(address,address,uint256)": {
        "details": "See {IERC721-safeTransferFrom}."
      },
      "safeTransferFrom(address,address,uint256,bytes)": {
        "details": "See {IERC721-safeTransferFrom}."
      },
      "setApprovalForAll(address,bool)": {
        "details": "See {IERC721-setApprovalForAll}."
      },
      "supportsInterface(bytes4)": {
        "details": "See {IERC165-supportsInterface}."
      },
      "symbol()": {
        "details": "See {IERC721Metadata-symbol}."
      },
      "tokenURI(uint256)": {
        "details": "See {IERC721Metadata-tokenURI}."
      },
      "transferFrom(address,address,uint256)": {
        "details": "See {IERC721-transferFrom}."
      }
    },
    "version": 1
  },
  "userdoc": {
    "kind": "user",
    "methods": {},
    "version": 1
  }
}