{
  "contractName": "ArbitratorVersioningProxy",
  "abi": [
    {
      "constant": true,
      "inputs": [],
      "name": "arbitratorExtraData",
      "outputs": [
        {
          "name": "",
          "type": "bytes"
        }
      ],
      "payable": false,
      "stateMutability": "view",
      "type": "function"
    },
    {
      "constant": true,
      "inputs": [
        {
          "name": "",
          "type": "uint256"
        }
      ],
      "name": "externalDisputeIDToLocalDisputeID",
      "outputs": [
        {
          "name": "",
          "type": "uint256"
        }
      ],
      "payable": false,
      "stateMutability": "view",
      "type": "function"
    },
    {
      "constant": true,
      "inputs": [
        {
          "name": "",
          "type": "uint256"
        }
      ],
      "name": "tags",
      "outputs": [
        {
          "name": "",
          "type": "bytes32"
        }
      ],
      "payable": false,
      "stateMutability": "view",
      "type": "function"
    },
    {
      "constant": true,
      "inputs": [],
      "name": "stable",
      "outputs": [
        {
          "name": "tag",
          "type": "bytes32"
        },
        {
          "name": "_address",
          "type": "address"
        }
      ],
      "payable": false,
      "stateMutability": "view",
      "type": "function"
    },
    {
      "constant": true,
      "inputs": [
        {
          "name": "",
          "type": "uint256"
        }
      ],
      "name": "disputes",
      "outputs": [
        {
          "name": "arbitrated",
          "type": "address"
        },
        {
          "name": "externalDisputeID",
          "type": "uint256"
        },
        {
          "name": "arbitrator",
          "type": "address"
        },
        {
          "name": "choices",
          "type": "uint256"
        }
      ],
      "payable": false,
      "stateMutability": "view",
      "type": "function"
    },
    {
      "constant": true,
      "inputs": [],
      "name": "implementation",
      "outputs": [
        {
          "name": "",
          "type": "address"
        }
      ],
      "payable": false,
      "stateMutability": "view",
      "type": "function"
    },
    {
      "constant": false,
      "inputs": [
        {
          "name": "_nextTag",
          "type": "bytes32"
        },
        {
          "name": "_nextAddress",
          "type": "address"
        }
      ],
      "name": "publish",
      "outputs": [],
      "payable": false,
      "stateMutability": "nonpayable",
      "type": "function"
    },
    {
      "constant": true,
      "inputs": [
        {
          "name": "",
          "type": "bytes32"
        }
      ],
      "name": "addresses",
      "outputs": [
        {
          "name": "",
          "type": "address"
        }
      ],
      "payable": false,
      "stateMutability": "view",
      "type": "function"
    },
    {
      "constant": true,
      "inputs": [],
      "name": "arbitrator",
      "outputs": [
        {
          "name": "",
          "type": "address"
        }
      ],
      "payable": false,
      "stateMutability": "view",
      "type": "function"
    },
    {
      "constant": true,
      "inputs": [],
      "name": "owner",
      "outputs": [
        {
          "name": "",
          "type": "address"
        }
      ],
      "payable": false,
      "stateMutability": "view",
      "type": "function"
    },
    {
      "constant": false,
      "inputs": [],
      "name": "rollback",
      "outputs": [
        {
          "name": "_success",
          "type": "bool"
        }
      ],
      "payable": false,
      "stateMutability": "nonpayable",
      "type": "function"
    },
    {
      "constant": true,
      "inputs": [
        {
          "name": "_disputeID",
          "type": "uint256"
        }
      ],
      "name": "appealPeriod",
      "outputs": [
        {
          "name": "start",
          "type": "uint256"
        },
        {
          "name": "end",
          "type": "uint256"
        }
      ],
      "payable": false,
      "stateMutability": "view",
      "type": "function"
    },
    {
      "constant": false,
      "inputs": [
        {
          "name": "_nextTag",
          "type": "bytes32"
        }
      ],
      "name": "setStable",
      "outputs": [],
      "payable": false,
      "stateMutability": "nonpayable",
      "type": "function"
    },
    {
      "constant": true,
      "inputs": [],
      "name": "allTags",
      "outputs": [
        {
          "name": "_tags",
          "type": "bytes32[]"
        }
      ],
      "payable": false,
      "stateMutability": "view",
      "type": "function"
    },
    {
      "inputs": [
        {
          "name": "_firstAddress",
          "type": "address"
        }
      ],
      "payable": false,
      "stateMutability": "nonpayable",
      "type": "constructor"
    },
    {
      "anonymous": false,
      "inputs": [
        {
          "indexed": false,
          "name": "_prevTag",
          "type": "bytes32"
        },
        {
          "indexed": false,
          "name": "_prevAddress",
          "type": "address"
        },
        {
          "indexed": false,
          "name": "_nextTag",
          "type": "bytes32"
        },
        {
          "indexed": false,
          "name": "_nextAddress",
          "type": "address"
        }
      ],
      "name": "OnStableChange",
      "type": "event"
    },
    {
      "anonymous": false,
      "inputs": [
        {
          "indexed": true,
          "name": "_metaEvidenceID",
          "type": "uint256"
        },
        {
          "indexed": false,
          "name": "_evidence",
          "type": "string"
        }
      ],
      "name": "MetaEvidence",
      "type": "event"
    },
    {
      "anonymous": false,
      "inputs": [
        {
          "indexed": true,
          "name": "_arbitrator",
          "type": "address"
        },
        {
          "indexed": true,
          "name": "_disputeID",
          "type": "uint256"
        },
        {
          "indexed": false,
          "name": "_metaEvidenceID",
          "type": "uint256"
        },
        {
          "indexed": false,
          "name": "_evidenceGroupID",
          "type": "uint256"
        }
      ],
      "name": "Dispute",
      "type": "event"
    },
    {
      "anonymous": false,
      "inputs": [
        {
          "indexed": true,
          "name": "_arbitrator",
          "type": "address"
        },
        {
          "indexed": true,
          "name": "_evidenceGroupID",
          "type": "uint256"
        },
        {
          "indexed": true,
          "name": "_party",
          "type": "address"
        },
        {
          "indexed": false,
          "name": "_evidence",
          "type": "string"
        }
      ],
      "name": "Evidence",
      "type": "event"
    },
    {
      "anonymous": false,
      "inputs": [
        {
          "indexed": true,
          "name": "_arbitrator",
          "type": "address"
        },
        {
          "indexed": true,
          "name": "_disputeID",
          "type": "uint256"
        },
        {
          "indexed": false,
          "name": "_ruling",
          "type": "uint256"
        }
      ],
      "name": "Ruling",
      "type": "event"
    },
    {
      "anonymous": false,
      "inputs": [
        {
          "indexed": true,
          "name": "_disputeID",
          "type": "uint256"
        },
        {
          "indexed": true,
          "name": "_arbitrable",
          "type": "address"
        }
      ],
      "name": "DisputeCreation",
      "type": "event"
    },
    {
      "anonymous": false,
      "inputs": [
        {
          "indexed": true,
          "name": "_disputeID",
          "type": "uint256"
        },
        {
          "indexed": true,
          "name": "_arbitrable",
          "type": "address"
        }
      ],
      "name": "AppealPossible",
      "type": "event"
    },
    {
      "anonymous": false,
      "inputs": [
        {
          "indexed": true,
          "name": "_disputeID",
          "type": "uint256"
        },
        {
          "indexed": true,
          "name": "_arbitrable",
          "type": "address"
        }
      ],
      "name": "AppealDecision",
      "type": "event"
    },
    {
      "constant": false,
      "inputs": [
        {
          "name": "_choices",
          "type": "uint256"
        },
        {
          "name": "_extraData",
          "type": "bytes"
        }
      ],
      "name": "createDispute",
      "outputs": [
        {
          "name": "_localDisputeID",
          "type": "uint256"
        }
      ],
      "payable": true,
      "stateMutability": "payable",
      "type": "function"
    },
    {
      "constant": false,
      "inputs": [
        {
          "name": "_localDisputeID",
          "type": "uint256"
        },
        {
          "name": "_extraData",
          "type": "bytes"
        }
      ],
      "name": "appeal",
      "outputs": [],
      "payable": true,
      "stateMutability": "payable",
      "type": "function"
    },
    {
      "constant": true,
      "inputs": [
        {
          "name": "_extraData",
          "type": "bytes"
        }
      ],
      "name": "arbitrationCost",
      "outputs": [
        {
          "name": "_fee",
          "type": "uint256"
        }
      ],
      "payable": false,
      "stateMutability": "view",
      "type": "function"
    },
    {
      "constant": true,
      "inputs": [
        {
          "name": "_localDisputeID",
          "type": "uint256"
        },
        {
          "name": "_extraData",
          "type": "bytes"
        }
      ],
      "name": "appealCost",
      "outputs": [
        {
          "name": "_fee",
          "type": "uint256"
        }
      ],
      "payable": false,
      "stateMutability": "view",
      "type": "function"
    },
    {
      "constant": true,
      "inputs": [
        {
          "name": "_localDisputeID",
          "type": "uint256"
        }
      ],
      "name": "currentRuling",
      "outputs": [
        {
          "name": "_ruling",
          "type": "uint256"
        }
      ],
      "payable": false,
      "stateMutability": "view",
      "type": "function"
    },
    {
      "constant": true,
      "inputs": [
        {
          "name": "_localDisputeID",
          "type": "uint256"
        }
      ],
      "name": "disputeStatus",
      "outputs": [
        {
          "name": "_status",
          "type": "uint8"
        }
      ],
      "payable": false,
      "stateMutability": "view",
      "type": "function"
    },
    {
      "constant": false,
      "inputs": [
        {
          "name": "_externalDisputeID",
          "type": "uint256"
        },
        {
          "name": "_ruling",
          "type": "uint256"
        }
      ],
      "name": "rule",
      "outputs": [],
      "payable": false,
      "stateMutability": "nonpayable",
      "type": "function"
    }
  ],
  "bytecode": "0x608060405260028054600160a060020a031916331790553480156200002357600080fd5b5060405160208062001cc78339810160408181529151602082019283905260008083528054600160a060020a03191633908117825591937f302e302e3100000000000000000000000000000000000000000000000000000093859392909162000090916001919062000395565b505060038054600160a060020a031916600160a060020a03841617905550620000c38282640100000000620000cc810204565b5050506200043a565b600254600160a060020a031633146200013557604080517f08c379a0000000000000000000000000000000000000000000000000000000008152602060048201819052602482015260008051602062001ca7833981519152604482015290519081900360640190fd5b60048054600181019091557f8a35acfbc15ff81a39ae7d344fd709f28e8600b4aa8c65c6b64bfe7fe36bd19b0182905560008281526005602052604090208054600160a060020a031916600160a060020a038316179055620001a082640100000000620001a4810204565b5050565b60025460009081908190600160a060020a031633146200021457604080517f08c379a0000000000000000000000000000000000000000000000000000000008152602060048201819052602482015260008051602062001ca7833981519152604482015290519081900360640190fd5b600084815260056020526040902054600160a060020a03169250821515620002c357604080517f08c379a000000000000000000000000000000000000000000000000000000000815260206004820152602c60248201527f546865206e65787420616464726573732063616e6e6f7420626520746865207a60448201527f65726f20616464726573732e0000000000000000000000000000000000000000606482015290519081900360840190fd5b5050600680546007805460408051808201909152868152600160a060020a03868116602090920182905294879055600160a060020a03198216179091559091166200031a828286866401000000006200038f810204565b60408051838152600160a060020a0380841660208301528183018790528516606082015290517f4f08c95ff89163f080e17ce39ace3dcf153ad5485ff5cd5657bddbc22f116e119181900360800190a1505060038054600160a060020a031916600160a060020a039290921691909117905550565b50505050565b828054600181600116156101000203166002900490600052602060002090601f016020900481019282601f10620003d857805160ff191683800117855562000408565b8280016001018555821562000408579182015b8281111562000408578251825591602001919060010190620003eb565b50620004169291506200041a565b5090565b6200043791905b8082111562000416576000815560010162000421565b90565b61185d806200044a6000396000f30060806040526004361061011c5763ffffffff7c01000000000000000000000000000000000000000000000000000000006000350416630c7ac7b681146101215780630e9cfdb4146101ab57806310f169e8146101d55780631c3db16d1461021157806320822abc1461022957806322be3de114610241578063311a6c561461028457806349912f88146102a1578063564a565d146102f25780635c60da1b1461034c578063682489831461038a578063699f200f146103bb5780636cc6cde1146103d35780638da5cb5b146103e85780639afd9d78146103fd578063afe15cfb14610426578063c13517e114610457578063d646fa4b146104a8578063e675be40146104c0578063f23f16e614610525578063f7434ea914610583575b600080fd5b34801561012d57600080fd5b506101366105dc565b6040805160208082528351818301528351919283929083019185019080838360005b83811015610170578181015183820152602001610158565b50505050905090810190601f16801561019d5780820380516001836020036101000a031916815260200191505b509250505060405180910390f35b3480156101b757600080fd5b506101c3600435610669565b60408051918252519081900360200190f35b3480156101e157600080fd5b506101ed60043561067b565b604051808260028111156101fd57fe5b60ff16815260200191505060405180910390f35b34801561021d57600080fd5b506101c3600435610764565b34801561023557600080fd5b506101c36004356107b7565b34801561024d57600080fd5b506102566107d6565b6040805192835273ffffffffffffffffffffffffffffffffffffffff90911660208301528051918290030190f35b34801561029057600080fd5b5061029f6004356024356107f5565b005b60408051602060046024803582810135601f810185900485028601850190965285855261029f9583359536956044949193909101919081908401838280828437509497506109179650505050505050565b3480156102fe57600080fd5b5061030a600435610c84565b6040805173ffffffffffffffffffffffffffffffffffffffff958616815260208101949094529190931682820152606082019290925290519081900360800190f35b34801561035857600080fd5b50610361610cd7565b6040805173ffffffffffffffffffffffffffffffffffffffff9092168252519081900360200190f35b34801561039657600080fd5b5061029f60043573ffffffffffffffffffffffffffffffffffffffff60243516610cf3565b3480156103c757600080fd5b50610361600435610df7565b3480156103df57600080fd5b50610361610e1f565b3480156103f457600080fd5b50610361610e3b565b34801561040957600080fd5b50610412610e57565b604080519115158252519081900360200190f35b34801561043257600080fd5b5061043e600435610f2d565b6040805192835260208301919091528051918290030190f35b60408051602060046024803582810135601f81018590048502860185019096528585526101c3958335953695604494919390910191908190840183828082843750949750610f359650505050505050565b3480156104b457600080fd5b5061029f600435611170565b3480156104cc57600080fd5b506104d56113ba565b60408051602080825283518183015283519192839290830191858101910280838360005b838110156105115781810151838201526020016104f9565b505050509050019250505060405180910390f35b34801561053157600080fd5b5060408051602060046024803582810135601f81018590048502860185019096528585526101c39583359536956044949193909101919081908401838280828437509497506114139650505050505050565b34801561058f57600080fd5b506040805160206004803580820135601f81018490048402850184019095528484526101c39436949293602493928401919081908401838280828437509497506116a79650505050505050565b60018054604080516020600284861615610100026000190190941693909304601f810184900484028201840190925281815292918301828280156106615780601f1061063657610100808354040283529160200191610661565b820191906000526020600020905b81548152906001019060200180831161064457829003601f168201915b505050505081565b60096020526000908152604090205481565b600060088281548110151561068c57fe5b60009182526020909120600260049092020101546008805473ffffffffffffffffffffffffffffffffffffffff909216916310f169e89190859081106106ce57fe5b9060005260206000209060040201600101546040518263ffffffff167c010000000000000000000000000000000000000000000000000000000002815260040180828152602001915050602060405180830381600087803b15801561073257600080fd5b505af1158015610746573d6000803e3d6000fd5b505050506040513d602081101561075c57600080fd5b505192915050565b600060088281548110151561077557fe5b60009182526020909120600260049092020101546008805473ffffffffffffffffffffffffffffffffffffffff90921691631c3db16d9190859081106106ce57fe5b60048054829081106107c557fe5b600091825260209091200154905081565b60065460075473ffffffffffffffffffffffffffffffffffffffff1682565b600082815260096020526040902054600880543391908390811061081557fe5b600091825260209091206002600490920201015473ffffffffffffffffffffffffffffffffffffffff16146108d157604080517f08c379a000000000000000000000000000000000000000000000000000000000815260206004820152603360248201527f54686520646973707574652063616e206f6e6c792062652072756c6564206f6e60448201527f206279206974732061726269747261746f722e00000000000000000000000000606482015290519081900360840190fd5b604080518381529051829133917f394027a5fa6e098a1191094d1719d6929b9abc535fcc0c8f448d6a4e756222769181900360200190a36109128383611777565b505050565b60035460088054600092839273ffffffffffffffffffffffffffffffffffffffff909116918690811061094657fe5b600091825260209091206002600490920201015473ffffffffffffffffffffffffffffffffffffffff1614610b6557600880548590811061098357fe5b9060005260206000209060040201600301549150600360009054906101000a900473ffffffffffffffffffffffffffffffffffffffff1673ffffffffffffffffffffffffffffffffffffffff1663c13517e13484866040518463ffffffff167c01000000000000000000000000000000000000000000000000000000000281526004018083815260200180602001828103825283818151815260200191508051906020019080838360005b83811015610a46578181015183820152602001610a2e565b50505050905090810190601f168015610a735780820380516001836020036101000a031916815260200191505b5093505050506020604051808303818588803b158015610a9257600080fd5b505af1158015610aa6573d6000803e3d6000fd5b50505050506040513d6020811015610abd57600080fd5b50516003546008805492935073ffffffffffffffffffffffffffffffffffffffff9091169186908110610aec57fe5b906000526020600020906004020160020160006101000a81548173ffffffffffffffffffffffffffffffffffffffff021916908373ffffffffffffffffffffffffffffffffffffffff16021790555080600885815481101515610b4b57fe5b906000526020600020906004020160010181905550610c7e565b6003546008805473ffffffffffffffffffffffffffffffffffffffff909216916349912f8891349188908110610b9757fe5b906000526020600020906004020160010154866040518463ffffffff167c01000000000000000000000000000000000000000000000000000000000281526004018083815260200180602001828103825283818151815260200191508051906020019080838360005b83811015610c18578181015183820152602001610c00565b50505050905090810190601f168015610c455780820380516001836020036101000a031916815260200191505b5093505050506000604051808303818588803b158015610c6457600080fd5b505af1158015610c78573d6000803e3d6000fd5b50505050505b50505050565b6008805482908110610c9257fe5b6000918252602090912060049091020180546001820154600283015460039093015473ffffffffffffffffffffffffffffffffffffffff928316945090929091169084565b60035473ffffffffffffffffffffffffffffffffffffffff1681565b60025473ffffffffffffffffffffffffffffffffffffffff163314610d7957604080517f08c379a000000000000000000000000000000000000000000000000000000000815260206004820181905260248201527f43616e206f6e6c792062652063616c6c656420627920746865206f776e65722e604482015290519081900360640190fd5b60048054600181019091557f8a35acfbc15ff81a39ae7d344fd709f28e8600b4aa8c65c6b64bfe7fe36bd19b018290556000828152600560205260409020805473ffffffffffffffffffffffffffffffffffffffff191673ffffffffffffffffffffffffffffffffffffffff8316179055610df382611170565b5050565b60056020526000908152604090205473ffffffffffffffffffffffffffffffffffffffff1681565b60005473ffffffffffffffffffffffffffffffffffffffff1681565b60025473ffffffffffffffffffffffffffffffffffffffff1681565b6002546000908190819073ffffffffffffffffffffffffffffffffffffffff163314610ee457604080517f08c379a000000000000000000000000000000000000000000000000000000000815260206004820181905260248201527f43616e206f6e6c792062652063616c6c656420627920746865206f776e65722e604482015290519081900360640190fd5b60045491506002821015610efb5760009250610f28565b600480546001198401908110610f0d57fe5b90600052602060002001549050610f2381611170565b600192505b505090565b600080915091565b600354604080517fc13517e10000000000000000000000000000000000000000000000000000000081526004810185815260248201928352845160448301528451600094859473ffffffffffffffffffffffffffffffffffffffff9091169363c13517e19334938a938a93909160649091019060208501908083838d5b83811015610fca578181015183820152602001610fb2565b50505050905090810190601f168015610ff75780820380516001836020036101000a031916815260200191505b5093505050506020604051808303818588803b15801561101657600080fd5b505af115801561102a573d6000803e3d6000fd5b50505050506040513d602081101561104157600080fd5b505160408051608081018252338152602081810184815260035473ffffffffffffffffffffffffffffffffffffffff908116848601908152606085019a8b526008805460018101825560009182529551600487027ff3f7a9fe364faab93b216da50a3214154f22a0a2b415b23a84c8169e8b636ee38101805492861673ffffffffffffffffffffffffffffffffffffffff1993841617905594517ff3f7a9fe364faab93b216da50a3214154f22a0a2b415b23a84c8169e8b636ee486015591517ff3f7a9fe364faab93b216da50a3214154f22a0a2b415b23a84c8169e8b636ee5850180549190941692169190911790915598517ff3f7a9fe364faab93b216da50a3214154f22a0a2b415b23a84c8169e8b636ee6909101559287526009909252909420849055509192915050565b6002546000908190819073ffffffffffffffffffffffffffffffffffffffff1633146111fd57604080517f08c379a000000000000000000000000000000000000000000000000000000000815260206004820181905260248201527f43616e206f6e6c792062652063616c6c656420627920746865206f776e65722e604482015290519081900360640190fd5b60008481526005602052604090205473ffffffffffffffffffffffffffffffffffffffff1692508215156112b857604080517f08c379a000000000000000000000000000000000000000000000000000000000815260206004820152602c60248201527f546865206e65787420616464726573732063616e6e6f7420626520746865207a60448201527f65726f20616464726573732e0000000000000000000000000000000000000000606482015290519081900360840190fd5b505060068054600780546040805180820190915286815273ffffffffffffffffffffffffffffffffffffffff86811660209092018290529487905573ffffffffffffffffffffffffffffffffffffffff1982161790915590911661131e82828686610c7e565b6040805183815273ffffffffffffffffffffffffffffffffffffffff80841660208301528183018790528516606082015290517f4f08c95ff89163f080e17ce39ace3dcf153ad5485ff5cd5657bddbc22f116e119181900360800190a150506003805473ffffffffffffffffffffffffffffffffffffffff191673ffffffffffffffffffffffffffffffffffffffff9290921691909117905550565b6060600480548060200260200160405190810160405280929190818152602001828054801561140957602002820191906000526020600020905b815481526001909101906020018083116113f4575b5050505050905090565b6003546008805460009273ffffffffffffffffffffffffffffffffffffffff1691908590811061143f57fe5b600091825260209091206002600490920201015473ffffffffffffffffffffffffffffffffffffffff1614611573576003546040517ff7434ea900000000000000000000000000000000000000000000000000000000815260206004820181815285516024840152855173ffffffffffffffffffffffffffffffffffffffff9094169363f7434ea993879383926044909201919085019080838360005b838110156114f45781810151838201526020016114dc565b50505050905090810190601f1680156115215780820380516001836020036101000a031916815260200191505b5092505050602060405180830381600087803b15801561154057600080fd5b505af1158015611554573d6000803e3d6000fd5b505050506040513d602081101561156a57600080fd5b505190506116a1565b6003546008805473ffffffffffffffffffffffffffffffffffffffff9092169163f23f16e69190869081106115a457fe5b906000526020600020906004020160010154846040518363ffffffff167c01000000000000000000000000000000000000000000000000000000000281526004018083815260200180602001828103825283818151815260200191508051906020019080838360005b8381101561162557818101518382015260200161160d565b50505050905090810190601f1680156116525780820380516001836020036101000a031916815260200191505b509350505050602060405180830381600087803b15801561167257600080fd5b505af1158015611686573d6000803e3d6000fd5b505050506040513d602081101561169c57600080fd5b505190505b92915050565b6003546040517ff7434ea900000000000000000000000000000000000000000000000000000000815260206004820181815284516024840152845160009473ffffffffffffffffffffffffffffffffffffffff169363f7434ea9938793928392604401918501908083838b5b8381101561172b578181015183820152602001611713565b50505050905090810190601f1680156117585780820380516001836020036101000a031916815260200191505b5092505050602060405180830381600087803b15801561073257600080fd5b600082815260096020526040902054600880548290811061179457fe5b60009182526020822060049182020154604080517f311a6c56000000000000000000000000000000000000000000000000000000008152928301859052602483018690525173ffffffffffffffffffffffffffffffffffffffff9091169263311a6c56926044808201939182900301818387803b15801561181457600080fd5b505af1158015611828573d6000803e3d6000fd5b505050505050505600a165627a7a7230582033fe8fd9e50a6c2fb0fc3e12c2a2d30dd46ac16ae323f29d9e453c8de339b624002943616e206f6e6c792062652063616c6c656420627920746865206f776e65722e",
  "source": "pragma solidity ^0.4.24;\n\nimport \"../arbitration/Arbitrator.sol\";\nimport \"../arbitration/Arbitrable.sol\";\n\nimport \"./VersioningProxy.sol\";\n\n/**\n *  @title ArbitratorVersioningProxy\n *  @author Enrique Piqueras - <epiquerass@gmail.com>\n *  @dev An arbitrator versioning proxy that only exposes methods in the Arbitrator spec.\n */\ncontract ArbitratorVersioningProxy is Arbitrator, Arbitrable, VersioningProxy {\n    /* Structs */\n\n    struct DisputeStruct {\n        Arbitrable arbitrated;\n        uint externalDisputeID;\n        Arbitrator arbitrator;\n        uint choices;\n    }\n\n    /* Storage */\n\n    DisputeStruct[] public disputes;\n\n    mapping(uint => uint) public externalDisputeIDToLocalDisputeID;\n\n    /* Constructor */\n\n    /**\n     * @dev Constructs the arbitrator versioning proxy with the first arbitrator contract version address and tags it v0.0.1.\n     * @param _firstAddress The address of the first arbitrator contract version.\n     */\n    constructor(Arbitrator _firstAddress) VersioningProxy(\"0.0.1\", _firstAddress) public Arbitrable(Arbitrator(msg.sender), \"\") {}\n\n    /* Public */\n\n    /** @dev Creates a dispute in the current `implementation` contract. Must be called by the arbitrable contract.\n     *  @param _choices The amount of choices the arbitrator can make in this dispute.\n     *  @param _extraData Can be used to give additional info on the dispute to be created.\n     *  @return The ID of the created dispute in the context of this contract.\n     */\n    function createDispute(uint _choices, bytes _extraData) public payable returns(uint _localDisputeID) {\n        uint externalDisputeID = Arbitrator(implementation).createDispute.value(msg.value)(_choices, _extraData);\n        _localDisputeID = disputes.push(\n            DisputeStruct({\n                arbitrated: Arbitrable(msg.sender),\n                externalDisputeID: externalDisputeID,\n                arbitrator: Arbitrator(implementation),\n                choices: _choices\n            })\n        ) -1;\n\n        externalDisputeIDToLocalDisputeID[externalDisputeID] = _localDisputeID;\n    }\n\n    /** @dev Appeals a ruling to the current `implementation` contract.\n     *  @param _localDisputeID The ID of the dispute to be appealed.\n     *  @param _extraData Can be used to give extra info on the appeal.\n     */\n    function appeal(uint _localDisputeID, bytes _extraData) public payable {\n        if (disputes[_localDisputeID].arbitrator != implementation) { // Arbitrator has been upgraded, create a new dispute in the new arbitrator\n            uint _choices = disputes[_localDisputeID].choices;\n            uint _externalDisputeID = Arbitrator(implementation).createDispute.value(msg.value)(_choices, _extraData);\n            disputes[_localDisputeID].arbitrator = Arbitrator(implementation);\n            disputes[_localDisputeID].externalDisputeID = _externalDisputeID;\n        }\n        else {\n            Arbitrator(implementation).appeal.value(msg.value)(disputes[_localDisputeID].externalDisputeID, _extraData);\n        }\n    }\n\n    /* Public Views */\n\n    /** @dev Computes the cost of arbitration in the current `implementation` contract. It is recommended not to increase it often, as it can be highly time and gas consuming for the arbitrated contracts to cope with fee augmentation.\n     *  @param _extraData Can be used to give additional info on the dispute to be created.\n     *  @return _fee The arbitration cost.\n     */\n    function arbitrationCost(bytes _extraData) public view returns(uint _fee) {\n        return Arbitrator(implementation).arbitrationCost(_extraData);\n    }\n\n    /** @dev Computes the cost of appealing to the current `implementation` contract.\n     *  It is recommended not to increase it often, as it can be highly time and gas consuming for the arbitrated contracts to cope with fee augmentation.\n     *  @param _localDisputeID The ID of the dispute to be appealed.\n     *  @param _extraData Can be used to give additional info on the dispute to be created.\n     *  @return _fee The appeal cost.\n     */\n    function appealCost(uint _localDisputeID, bytes _extraData) public view returns(uint _fee) {\n        if (disputes[_localDisputeID].arbitrator != implementation) {\n            _fee = Arbitrator(implementation).arbitrationCost(_extraData);\n        }\n        else {\n            _fee = Arbitrator(implementation).appealCost(disputes[_localDisputeID].externalDisputeID, _extraData);\n        }\n    }\n\n    /** @dev Get the current ruling of a dispute. This is useful for parties to know if they should appeal.\n     *  @param _localDisputeID The ID of the dispute.\n     *  @return _ruling The current ruling which will be given if there is no appeal or which has been given.\n     */\n    function currentRuling(uint _localDisputeID) public view returns(uint _ruling) {\n        return disputes[_localDisputeID].arbitrator.currentRuling(disputes[_localDisputeID].externalDisputeID);\n    }\n\n    /** @dev Get the status of a dispute.\n     *  @param _localDisputeID The ID of the dispute.\n     *  @return _status The status of the dispute.\n     */\n    function disputeStatus(uint _localDisputeID) public view returns(Arbitrator.DisputeStatus _status) {\n        return disputes[_localDisputeID].arbitrator.disputeStatus(disputes[_localDisputeID].externalDisputeID);\n    }\n\n    /** @dev Give a ruling for a dispute. Must be called by the arbitrator.\n     *  The purpose of this function is to ensure that the address calling it has the right to rule on the contract.\n     *  @param _externalDisputeID ID of the dispute in the Arbitrator contract.\n     *  @param _ruling Ruling given by the arbitrator. Note that 0 is reserved for \"Not able/wanting to make a decision\".\n     */\n    function rule(uint _externalDisputeID, uint _ruling) public {\n        uint localDisputeID = externalDisputeIDToLocalDisputeID[_externalDisputeID];\n\n        require(disputes[localDisputeID].arbitrator == msg.sender, \"The dispute can only be ruled on by its arbitrator.\");\n\n        emit Ruling(Arbitrator(msg.sender), localDisputeID, _ruling);\n\n        executeRuling(_externalDisputeID, _ruling);\n    }\n\n    /** @dev Execute a ruling of a dispute.\n     *  @param _externalDisputeID ID of the dispute in the Arbitrator contract.\n     *  @param _ruling Ruling given by the arbitrator. Note that 0 is reserved for \"Not able/wanting to make a decision\".\n     */\n    function executeRuling(uint _externalDisputeID, uint _ruling) internal {\n        uint localDisputeID = externalDisputeIDToLocalDisputeID[_externalDisputeID];\n        disputes[localDisputeID].arbitrated.rule(localDisputeID, _ruling);\n    }\n\n}\n",
  "sourcePath": "/home/pauladayn/Kleros contracts/contracts/kleros-interaction/contracts/standard/proxy/ArbitratorVersioningProxy.sol",
  "compiler": {
    "name": "solc",
    "version": "0.4.25+commit.59dbf8f1.Emscripten.clang"
  },
  "schemaVersion": "3.3.4",
  "updatedAt": "2021-04-16T15:13:02.279Z",
  "devdoc": {
    "author": "Enrique Piqueras - <epiquerass@gmail.com>",
    "methods": {
      "allTags()": {
        "return": "All of the deployed version tags."
      },
      "appeal(uint256,bytes)": {
        "details": "Appeals a ruling to the current `implementation` contract.",
        "params": {
          "_extraData": "Can be used to give extra info on the appeal.",
          "_localDisputeID": "The ID of the dispute to be appealed."
        }
      },
      "appealCost(uint256,bytes)": {
        "details": "Computes the cost of appealing to the current `implementation` contract. It is recommended not to increase it often, as it can be highly time and gas consuming for the arbitrated contracts to cope with fee augmentation.",
        "params": {
          "_extraData": "Can be used to give additional info on the dispute to be created.",
          "_localDisputeID": "The ID of the dispute to be appealed."
        },
        "return": "_fee The appeal cost."
      },
      "appealPeriod(uint256)": {
        "details": "Compute the start and end of the dispute's current or next appeal period, if possible.",
        "params": {
          "_disputeID": "ID of the dispute."
        },
        "return": "The start and end of the period."
      },
      "arbitrationCost(bytes)": {
        "details": "Computes the cost of arbitration in the current `implementation` contract. It is recommended not to increase it often, as it can be highly time and gas consuming for the arbitrated contracts to cope with fee augmentation.",
        "params": {
          "_extraData": "Can be used to give additional info on the dispute to be created."
        },
        "return": "_fee The arbitration cost."
      },
      "createDispute(uint256,bytes)": {
        "details": "Creates a dispute in the current `implementation` contract. Must be called by the arbitrable contract.",
        "params": {
          "_choices": "The amount of choices the arbitrator can make in this dispute.",
          "_extraData": "Can be used to give additional info on the dispute to be created."
        },
        "return": "The ID of the created dispute in the context of this contract."
      },
      "currentRuling(uint256)": {
        "details": "Get the current ruling of a dispute. This is useful for parties to know if they should appeal.",
        "params": {
          "_localDisputeID": "The ID of the dispute."
        },
        "return": "_ruling The current ruling which will be given if there is no appeal or which has been given."
      },
      "disputeStatus(uint256)": {
        "details": "Get the status of a dispute.",
        "params": {
          "_localDisputeID": "The ID of the dispute."
        },
        "return": "_status The status of the dispute."
      },
      "publish(bytes32,address)": {
        "params": {
          "_nextAddress": "The next address of the managed contract.",
          "_nextTag": "The next version tag."
        }
      },
      "rollback()": {
        "return": "True if there was a previous version and the rollback succeeded, false otherwise."
      },
      "rule(uint256,uint256)": {
        "details": "Give a ruling for a dispute. Must be called by the arbitrator. The purpose of this function is to ensure that the address calling it has the right to rule on the contract.",
        "params": {
          "_externalDisputeID": "ID of the dispute in the Arbitrator contract.",
          "_ruling": "Ruling given by the arbitrator. Note that 0 is reserved for \"Not able/wanting to make a decision\"."
        }
      },
      "setStable(bytes32)": {
        "params": {
          "_nextTag": "The already published version tag."
        }
      }
    },
    "title": "ArbitratorVersioningProxy"
  },
  "userdoc": {
    "methods": {
      "allTags()": {
        "notice": "Returns all deployed version tags."
      },
      "publish(bytes32,address)": {
        "notice": "Publishes the next version of the managed contract, `nextTag`, at `nextAddress`."
      },
      "rollback()": {
        "notice": "Rolls back 'stable' to the previous deployment, and returns true, if one exists, returns false otherwise."
      },
      "setStable(bytes32)": {
        "notice": "Sets the value of 'stable' to the address of `nextTag`."
      }
    }
  }
}