{
  "contractName": "ArbitrableDeposit",
  "abi": [
    {
      "constant": true,
      "inputs": [],
      "name": "arbitratorExtraData",
      "outputs": [
        {
          "name": "",
          "type": "bytes"
        }
      ],
      "payable": false,
      "stateMutability": "view",
      "type": "function"
    },
    {
      "constant": true,
      "inputs": [],
      "name": "status",
      "outputs": [
        {
          "name": "",
          "type": "uint8"
        }
      ],
      "payable": false,
      "stateMutability": "view",
      "type": "function"
    },
    {
      "constant": true,
      "inputs": [],
      "name": "claimantFee",
      "outputs": [
        {
          "name": "",
          "type": "uint256"
        }
      ],
      "payable": false,
      "stateMutability": "view",
      "type": "function"
    },
    {
      "constant": false,
      "inputs": [
        {
          "name": "_disputeID",
          "type": "uint256"
        },
        {
          "name": "_ruling",
          "type": "uint256"
        }
      ],
      "name": "rule",
      "outputs": [],
      "payable": false,
      "stateMutability": "nonpayable",
      "type": "function"
    },
    {
      "constant": true,
      "inputs": [],
      "name": "arbitrator",
      "outputs": [
        {
          "name": "",
          "type": "address"
        }
      ],
      "payable": false,
      "stateMutability": "view",
      "type": "function"
    },
    {
      "constant": true,
      "inputs": [],
      "name": "timeout",
      "outputs": [
        {
          "name": "",
          "type": "uint256"
        }
      ],
      "payable": false,
      "stateMutability": "view",
      "type": "function"
    },
    {
      "constant": true,
      "inputs": [],
      "name": "claimDepositAmount",
      "outputs": [
        {
          "name": "",
          "type": "uint256"
        }
      ],
      "payable": false,
      "stateMutability": "view",
      "type": "function"
    },
    {
      "constant": true,
      "inputs": [],
      "name": "claimAmount",
      "outputs": [
        {
          "name": "",
          "type": "uint256"
        }
      ],
      "payable": false,
      "stateMutability": "view",
      "type": "function"
    },
    {
      "constant": true,
      "inputs": [],
      "name": "claimRate",
      "outputs": [
        {
          "name": "",
          "type": "uint256"
        }
      ],
      "payable": false,
      "stateMutability": "view",
      "type": "function"
    },
    {
      "constant": true,
      "inputs": [],
      "name": "owner",
      "outputs": [
        {
          "name": "",
          "type": "address"
        }
      ],
      "payable": false,
      "stateMutability": "view",
      "type": "function"
    },
    {
      "constant": true,
      "inputs": [],
      "name": "lastInteraction",
      "outputs": [
        {
          "name": "",
          "type": "uint256"
        }
      ],
      "payable": false,
      "stateMutability": "view",
      "type": "function"
    },
    {
      "constant": true,
      "inputs": [],
      "name": "amount",
      "outputs": [
        {
          "name": "",
          "type": "uint256"
        }
      ],
      "payable": false,
      "stateMutability": "view",
      "type": "function"
    },
    {
      "constant": true,
      "inputs": [],
      "name": "disputeID",
      "outputs": [
        {
          "name": "",
          "type": "uint256"
        }
      ],
      "payable": false,
      "stateMutability": "view",
      "type": "function"
    },
    {
      "constant": true,
      "inputs": [],
      "name": "claimant",
      "outputs": [
        {
          "name": "",
          "type": "address"
        }
      ],
      "payable": false,
      "stateMutability": "view",
      "type": "function"
    },
    {
      "constant": true,
      "inputs": [],
      "name": "ownerFee",
      "outputs": [
        {
          "name": "",
          "type": "uint256"
        }
      ],
      "payable": false,
      "stateMutability": "view",
      "type": "function"
    },
    {
      "inputs": [
        {
          "name": "_arbitrator",
          "type": "address"
        },
        {
          "name": "_timeout",
          "type": "uint256"
        },
        {
          "name": "_arbitratorExtraData",
          "type": "bytes"
        },
        {
          "name": "_claimRate",
          "type": "uint256"
        },
        {
          "name": "_metaEvidence",
          "type": "string"
        }
      ],
      "payable": true,
      "stateMutability": "payable",
      "type": "constructor"
    },
    {
      "anonymous": false,
      "inputs": [
        {
          "indexed": false,
          "name": "_party",
          "type": "uint8"
        }
      ],
      "name": "HasToPayFee",
      "type": "event"
    },
    {
      "anonymous": false,
      "inputs": [
        {
          "indexed": true,
          "name": "_metaEvidenceID",
          "type": "uint256"
        },
        {
          "indexed": false,
          "name": "_evidence",
          "type": "string"
        }
      ],
      "name": "MetaEvidence",
      "type": "event"
    },
    {
      "anonymous": false,
      "inputs": [
        {
          "indexed": true,
          "name": "_arbitrator",
          "type": "address"
        },
        {
          "indexed": true,
          "name": "_disputeID",
          "type": "uint256"
        },
        {
          "indexed": false,
          "name": "_metaEvidenceID",
          "type": "uint256"
        },
        {
          "indexed": false,
          "name": "_evidenceGroupID",
          "type": "uint256"
        }
      ],
      "name": "Dispute",
      "type": "event"
    },
    {
      "anonymous": false,
      "inputs": [
        {
          "indexed": true,
          "name": "_arbitrator",
          "type": "address"
        },
        {
          "indexed": true,
          "name": "_evidenceGroupID",
          "type": "uint256"
        },
        {
          "indexed": true,
          "name": "_party",
          "type": "address"
        },
        {
          "indexed": false,
          "name": "_evidence",
          "type": "string"
        }
      ],
      "name": "Evidence",
      "type": "event"
    },
    {
      "anonymous": false,
      "inputs": [
        {
          "indexed": true,
          "name": "_arbitrator",
          "type": "address"
        },
        {
          "indexed": true,
          "name": "_disputeID",
          "type": "uint256"
        },
        {
          "indexed": false,
          "name": "_ruling",
          "type": "uint256"
        }
      ],
      "name": "Ruling",
      "type": "event"
    },
    {
      "constant": false,
      "inputs": [],
      "name": "deposit",
      "outputs": [],
      "payable": true,
      "stateMutability": "payable",
      "type": "function"
    },
    {
      "constant": false,
      "inputs": [
        {
          "name": "_claimAmount",
          "type": "uint256"
        }
      ],
      "name": "makeClaim",
      "outputs": [],
      "payable": false,
      "stateMutability": "nonpayable",
      "type": "function"
    },
    {
      "constant": false,
      "inputs": [
        {
          "name": "_responseAmount",
          "type": "uint256"
        }
      ],
      "name": "claimResponse",
      "outputs": [],
      "payable": false,
      "stateMutability": "nonpayable",
      "type": "function"
    },
    {
      "constant": false,
      "inputs": [],
      "name": "payArbitrationFeeByOwner",
      "outputs": [],
      "payable": true,
      "stateMutability": "payable",
      "type": "function"
    },
    {
      "constant": false,
      "inputs": [],
      "name": "payArbitrationFeeByClaimant",
      "outputs": [],
      "payable": true,
      "stateMutability": "payable",
      "type": "function"
    },
    {
      "constant": false,
      "inputs": [],
      "name": "timeOutByOwner",
      "outputs": [],
      "payable": false,
      "stateMutability": "nonpayable",
      "type": "function"
    },
    {
      "constant": false,
      "inputs": [],
      "name": "timeOutByClaimant",
      "outputs": [],
      "payable": false,
      "stateMutability": "nonpayable",
      "type": "function"
    }
  ],
  "bytecode": "0x60806040526040516200184d3803806200184d8339810160409081528151602080840151928401516060850151608086015160008054600160a060020a031916600160a060020a0387161790559186018051949690949193920191869185916200006f9160019184019062000178565b5050506004849055600b829055600e805460ff191690556009805434019081905560028054600160a060020a03191633179055604051309180156108fc02916000818181858888f19350505050158015620000ce573d6000803e3d6000fd5b5060007f61606860eb6c87306811e2695215385101daab53bd6ab4e9f9049aead9363c7d826040518080602001828103825283818151815260200191508051906020019080838360005b838110156200013257818101518382015260200162000118565b50505050905090810190601f168015620001605780820380516001836020036101000a031916815260200191505b509250505060405180910390a250505050506200021d565b828054600181600116156101000203166002900490600052602060002090601f016020900481019282601f10620001bb57805160ff1916838001178555620001eb565b82800160010185558215620001eb579182015b82811115620001eb578251825591602001919060010190620001ce565b50620001f9929150620001fd565b5090565b6200021a91905b80821115620001f9576000815560010162000204565b90565b611620806200022d6000396000f3006080604052600436106101275763ffffffff7c010000000000000000000000000000000000000000000000000000000060003504166307c665c1811461012c5780630c7ac7b6146101435780631077f06c146101cd578063200d2ed2146101e55780632e7bb8d21461021e578063311a6c561461024557806360c1f8001461026057806361aab938146102685780636cc6cde11461028057806370dea79a146102be5780637c100247146102d3578063830953ab146102e8578063898fdf94146102fd5780638da5cb5b146103125780638f71a26514610327578063a243437b1461033c578063aa8c217c14610344578063b0a1e2b414610359578063ce008b9f1461036e578063d0e30db014610383578063d28720af1461038b578063d5b2a01a146103a0575b600080fd5b34801561013857600080fd5b506101416103b5565b005b34801561014f57600080fd5b50610158610555565b6040805160208082528351818301528351919283929083019185019080838360005b8381101561019257818101518382015260200161017a565b50505050905090810190601f1680156101bf5780820380516001836020036101000a031916815260200191505b509250505060405180910390f35b3480156101d957600080fd5b506101416004356105e2565b3480156101f157600080fd5b506101fa610755565b6040518082600481111561020a57fe5b60ff16815260200191505060405180910390f35b34801561022a57600080fd5b5061023361075e565b60408051918252519081900360200190f35b34801561025157600080fd5b50610141600435602435610764565b610141610843565b34801561027457600080fd5b50610141600435610b57565b34801561028c57600080fd5b50610295610cf1565b6040805173ffffffffffffffffffffffffffffffffffffffff9092168252519081900360200190f35b3480156102ca57600080fd5b50610233610d0d565b3480156102df57600080fd5b50610233610d13565b3480156102f457600080fd5b50610233610d19565b34801561030957600080fd5b50610233610d1f565b34801561031e57600080fd5b50610295610d25565b34801561033357600080fd5b50610233610d41565b610141610d47565b34801561035057600080fd5b5061023361103a565b34801561036557600080fd5b50610233611040565b34801561037a57600080fd5b50610141611046565b6101416111be565b34801561039757600080fd5b50610295611268565b3480156103ac57600080fd5b50610233611284565b60035473ffffffffffffffffffffffffffffffffffffffff16331461044f57604080516000805160206115d5833981519152815260206004820152602360248201527f43616e206f6e6c792062652063616c6c65642062792074686520636c61696d6160448201527f6e742e0000000000000000000000000000000000000000000000000000000000606482015290519081900360840190fd5b6001600e5460ff16600481111561046257fe5b146104e257604080516000805160206115d5833981519152815260206004820152602a60248201527f54686520636f6e7472616374206973206e6f742077616974696e6720666f722060448201527f746865206f776e65722e00000000000000000000000000000000000000000000606482015290519081900360840190fd5b6004546007540142101561054557604080516000805160206115d5833981519152815260206004820152601b60248201527f4e6f7420656e6f7567682074696d6520686173207061737365642e0000000000604482015290519081900360640190fd5b60085461055390600261128a565b565b60018054604080516020600284861615610100026000190190941693909304601f810184900484028201840190925281815292918301828280156105da5780601f106105af576101008083540402835291602001916105da565b820191906000526020600020905b8154815290600101906020018083116105bd57829003601f168201915b505050505081565b60025473ffffffffffffffffffffffffffffffffffffffff1633141561065757604080516000805160206115d5833981519152815260206004820152601e60248201527f43616e6e6f742062652063616c6c656420627920746865206f776e65722e0000604482015290519081900360640190fd5b6009548111156106dc57604080516000805160206115d5833981519152815260206004820152602960248201527f43616e6e6f7420636c61696d206d6f7265207468616e2077686174206973206460448201527f65706f73697465642e0000000000000000000000000000000000000000000000606482015290519081900360840190fd5b600380547fffffffffffffffffffffffff00000000000000000000000000000000000000001633179055600a819055600b54606490820204600d819055604051309180156108fc02916000818181858888f19350505050158015610744573d6000803e3d6000fd5b5050600e805460ff19166001179055565b600e5460ff1681565b60065481565b60005473ffffffffffffffffffffffffffffffffffffffff1633146107fe57604080516000805160206115d5833981519152815260206004820152602560248201527f43616e206f6e6c792062652063616c6c6564206279207468652061726269747260448201527f61746f722e000000000000000000000000000000000000000000000000000000606482015290519081900360840190fd5b604080518281529051839133917f394027a5fa6e098a1191094d1719d6929b9abc535fcc0c8f448d6a4e756222769181900360200190a361083f828261128a565b5050565b60025460009073ffffffffffffffffffffffffffffffffffffffff1633146108ba57604080516000805160206115d5833981519152815260206004820181905260248201527f43616e206f6e6c792062652063616c6c656420627920746865206f776e65722e604482015290519081900360640190fd5b6000546040517ff7434ea9000000000000000000000000000000000000000000000000000000008152602060048201908152600180546002600019828416156101000201909116046024840181905273ffffffffffffffffffffffffffffffffffffffff9094169363f7434ea9939192918291604490910190849080156109825780601f1061095757610100808354040283529160200191610982565b820191906000526020600020905b81548152906001019060200180831161096557829003601f168201915b505092505050602060405180830381600087803b1580156109a257600080fd5b505af11580156109b6573d6000803e3d6000fd5b505050506040513d60208110156109cc57600080fd5b5051600580543401908190559091508114610a5c57604080516000805160206115d5833981519152815260206004820152602660248201527f4f776e657220666565206d75737420657175616c206172626974726174696f6e60448201527f20636f73742e0000000000000000000000000000000000000000000000000000606482015290519081900360840190fd5b6003600e5460ff166004811115610a6f57fe5b10610aef57604080516000805160206115d5833981519152815260206004820152602260248201527f4120646973707574652068617320616c7265616479206265656e20726169736560448201527f642e000000000000000000000000000000000000000000000000000000000000606482015290519081900360840190fd5b42600755600654811115610b4b57600e80546002919060ff19166001835b0217905550604080516001815290517fba8db766b5582c21593909b57af48297714ea2c508bfff6c537ce36bb853e5689181900360200190a1610b54565b610b5481611449565b50565b60025473ffffffffffffffffffffffffffffffffffffffff163314610bcb57604080516000805160206115d5833981519152815260206004820181905260248201527f43616e206f6e6c792062652063616c6c656420627920746865206f776e65722e604482015290519081900360640190fd5b600d54811115610c7657604080516000805160206115d5833981519152815260206004820152604160248201527f54686520726573706f6e736520616d6f756e742068617320746f206265206c6560448201527f7373207468616e2074686520636c61696d206465706f73697420616d6f756e7460648201527f2e00000000000000000000000000000000000000000000000000000000000000608482015290519081900360a40190fd5b600c819055600d54811415610ce95760035460405173ffffffffffffffffffffffffffffffffffffffff9091169082156108fc029083906000818181858888f19350505050158015610ccc573d6000803e3d6000fd5b506000600a819055600955600e805460ff19166004179055610b54565b610b54610843565b60005473ffffffffffffffffffffffffffffffffffffffff1681565b60045481565b600d5481565b600a5481565b600b5481565b60025473ffffffffffffffffffffffffffffffffffffffff1681565b60075481565b60035460009073ffffffffffffffffffffffffffffffffffffffff163314610de457604080516000805160206115d5833981519152815260206004820152602360248201527f43616e206f6e6c792062652063616c6c65642062792074686520636c61696d6160448201527f6e742e0000000000000000000000000000000000000000000000000000000000606482015290519081900360840190fd5b6000546040517ff7434ea9000000000000000000000000000000000000000000000000000000008152602060048201908152600180546002600019828416156101000201909116046024840181905273ffffffffffffffffffffffffffffffffffffffff9094169363f7434ea993919291829160449091019084908015610eac5780601f10610e8157610100808354040283529160200191610eac565b820191906000526020600020905b815481529060010190602001808311610e8f57829003601f168201915b505092505050602060405180830381600087803b158015610ecc57600080fd5b505af1158015610ee0573d6000803e3d6000fd5b505050506040513d6020811015610ef657600080fd5b5051600680543401908190559091508114610f8657604080516000805160206115d5833981519152815260206004820152602960248201527f436c61696d616e7420666565206d75737420657175616c20617262697472617460448201527f696f6e20636f73742e0000000000000000000000000000000000000000000000606482015290519081900360840190fd5b6003600e5460ff166004811115610f9957fe5b1061101957604080516000805160206115d5833981519152815260206004820152602260248201527f4120646973707574652068617320616c7265616479206265656e20726169736560448201527f642e000000000000000000000000000000000000000000000000000000000000606482015290519081900360840190fd5b42600755600554811115610b4b57600e80546001919060ff19168280610b0d565b60095481565b60085481565b60025473ffffffffffffffffffffffffffffffffffffffff1633146110ba57604080516000805160206115d5833981519152815260206004820181905260248201527f43616e206f6e6c792062652063616c6c656420627920746865206f776e65722e604482015290519081900360640190fd5b6002600e5460ff1660048111156110cd57fe5b1461114d57604080516000805160206115d5833981519152815260206004820152602d60248201527f54686520636f6e7472616374206973206e6f742077616974696e6720666f722060448201527f74686520636c61696d616e742e00000000000000000000000000000000000000606482015290519081900360840190fd5b600454600754014210156111b057604080516000805160206115d5833981519152815260206004820152601b60248201527f4e6f7420656e6f7567682074696d6520686173207061737365642e0000000000604482015290519081900360640190fd5b60085461055390600161128a565b60025473ffffffffffffffffffffffffffffffffffffffff16331461123257604080516000805160206115d5833981519152815260206004820181905260248201527f43616e206f6e6c792062652063616c6c656420627920746865206f776e65722e604482015290519081900360640190fd5b6009805434908101909155604051309180156108fc02916000818181858888f19350505050158015610b54573d6000803e3d6000fd5b60035473ffffffffffffffffffffffffffffffffffffffff1681565b60055481565b60085482146112e857604080516000805160206115d5833981519152815260206004820152601160248201527f57726f6e6720646973707574652049442e000000000000000000000000000000604482015290519081900360640190fd5b600281111561134657604080516000805160206115d5833981519152815260206004820152600f60248201527f496e76616c69642072756c696e672e0000000000000000000000000000000000604482015290519081900360640190fd5b60018114156113ec57600254600a5460095460405173ffffffffffffffffffffffffffffffffffffffff90931692910180156108fc02916000818181858888f1935050505015801561139c573d6000803e3d6000fd5b50600354600c5460405173ffffffffffffffffffffffffffffffffffffffff9092169181156108fc0291906000818181858888f193505050501580156113e6573d6000803e3d6000fd5b50611440565b60028114156114405760035460095460405173ffffffffffffffffffffffffffffffffffffffff9092169181156108fc0291906000818181858888f1935050505015801561143e573d6000803e3d6000fd5b505b50506000600955565b600e805460ff19166003179055600054604080517fc13517e10000000000000000000000000000000000000000000000000000000081526002600482018181526024830193845260018054610100818316150260001901168390046044850181905273ffffffffffffffffffffffffffffffffffffffff9096169563c13517e19588959293929091606490910190849080156115265780601f106114fb57610100808354040283529160200191611526565b820191906000526020600020905b81548152906001019060200180831161150957829003601f168201915b505093505050506020604051808303818588803b15801561154657600080fd5b505af115801561155a573d6000803e3d6000fd5b50505050506040513d602081101561157157600080fd5b5051600881905560008054604080518381526020810193909352805173ffffffffffffffffffffffffffffffffffffffff909216927f74baab670a4015ab2f1b467c5252a96141a2573f2908e58a92081e80d3cfde3d929081900390910190a350560008c379a000000000000000000000000000000000000000000000000000000000a165627a7a72305820690c016584c5c934f1683a133727248b133ceaac8f2271c1563aad7e0cd99dde0029",
  "source": "/**\n *  @title ArbitrableDeposit\n *  @author Luke Hartman - <lhartman3@zagmail.gonzaga.edu>\n *  Bug Bounties: This code hasn't undertaken a bug bounty program yet.\n */\n\n\npragma solidity ^0.4.15;\nimport \"./Arbitrable.sol\";\n\n\n/** @title Arbitrable Deposit\n *  This is a a contract which allow for an owner deposit. Anyone besides the owner can seek arbitration/file a claim as a claimant.\n * To develop a contract inheriting from this one, you need to:\n *  - Redefine RULING_OPTIONS to explain the consequences of the possible rulings.\n *  - Redefine executeRuling while still calling super.executeRuling to implement the results of the arbitration.\n */\ncontract ArbitrableDeposit is Arbitrable {\n    address public owner;\n    address public claimant;\n    uint public timeout; // Time in seconds a party can take before being considered unresponding and lose the dispute.\n    uint public ownerFee; // Total fees paid by the owner.\n    uint public claimantFee; // Total fees paid by the claimant.\n    uint public lastInteraction; // Last interaction for the dispute procedure.\n    uint public disputeID;\n    uint public amount; // Total amount deposited by owner.\n    uint public claimAmount; // Claim amount a claimant proposes.\n    uint public claimRate; // Rate of a claim the claimant must deposit as an integer.\n    uint internal claimResponseAmount; // Amount which the Owner responds to the claimant's asking claim.\n    uint public claimDepositAmount; // Total amount a claimant must deposit.\n\n    enum Status {NoDispute, WaitingOwner, WaitingClaimant, DisputeCreated, Resolved}\n    Status public status;\n\n    uint8 constant AMOUNT_OF_CHOICES = 2;\n    uint8 constant OWNER_WINS = 1;\n    uint8 constant CLAIMANT_WINS = 2;\n    string constant RULING_OPTIONS = \"Owner wins;Claimant wins\"; // A plain English of what rulings do. Need to be redefined by the child class.\n\n    modifier onlyOwner{require(msg.sender == address(owner), \"Can only be called by the owner.\"); _;}\n    modifier onlyNotOwner{require(msg.sender != address(owner), \"Cannot be called by the owner.\"); _;}\n    modifier onlyClaimant{require(msg.sender == address(claimant), \"Can only be called by the claimant.\"); _;}\n\n    enum Party {Owner, Claimant}\n\n    /** @dev Indicate that a party has to pay a fee or would otherwise be considered as loosing.\n     *  @param _party The party who has to pay.\n     */\n    event HasToPayFee(Party _party);\n\n    /** @dev Constructor. Choose the arbitrator\n     *  @param _arbitrator The arbitrator of the contract.\n     *  @param _timeout Time after which a party automatically loose a dispute.\n     *  @param _arbitratorExtraData Extra data for the arbitrator.\n     *  @param _metaEvidence Link to the meta evidence.\n     */\n    constructor(\n        Arbitrator _arbitrator,\n        uint _timeout,\n        bytes _arbitratorExtraData,\n        uint _claimRate,\n        string _metaEvidence\n    ) Arbitrable(_arbitrator, _arbitratorExtraData) public payable {\n        timeout = _timeout;\n        claimRate = _claimRate;\n        status = Status.NoDispute;\n        amount += msg.value;\n        owner = msg.sender;\n        address(this).transfer(amount);\n        emit MetaEvidence(0, _metaEvidence);\n    }\n\n    /** @dev Owner deposit to contract. To be called when the owner makes a deposit.\n     */\n    function deposit() public payable onlyOwner {\n        amount += msg.value;\n        address(this).transfer(msg.value);\n    }\n\n    /** @dev File a claim against owner. To be called when someone makes a claim.\n     *  @param _claimAmount The proposed claim amount by the claimant.\n     */\n    function makeClaim(uint _claimAmount) public onlyNotOwner {\n        require(_claimAmount <= amount, \"Cannot claim more than what is deposited.\");\n        claimant = msg.sender;\n        claimAmount = _claimAmount;\n        claimDepositAmount = (_claimAmount * claimRate) / 100;\n        address(this).transfer(claimDepositAmount);\n        status = Status.WaitingOwner;\n    }\n\n    /** @dev Owner response to claimant. To be called when the owner initates a\n     *  a response.\n     *  @param _responseAmount The counter-offer amount the Owner proposes to a claimant.\n     */\n    function claimResponse(uint _responseAmount) public onlyOwner {\n        require(_responseAmount <= claimDepositAmount, \"The response amount has to be less than the claim deposit amount.\");\n        claimResponseAmount = _responseAmount;\n        if (_responseAmount == claimDepositAmount) {\n            claimant.transfer(_responseAmount);\n            claimAmount = 0;\n            amount = 0;\n            status = Status.Resolved;\n        }  else {\n            payArbitrationFeeByOwner();\n        }\n    }\n\n    /** @dev Pay the arbitration fee to raise a dispute. To be called by the owner. UNTRUSTED.\n     *  Note that the arbitrator can have createDispute throw, which will make this function throw and therefore lead to a party being timed-out.\n     *  This is not a vulnerability as the arbitrator can rule in favor of one party anyway.\n     */\n    function payArbitrationFeeByOwner() public payable onlyOwner{\n        uint arbitrationCost = arbitrator.arbitrationCost(arbitratorExtraData);\n        ownerFee += msg.value;\n        // Require that the total pay at least the arbitration cost.\n        require(ownerFee == arbitrationCost, \"Owner fee must equal arbitration cost.\");\n        require(status < Status.DisputeCreated, \"A dispute has already been raised.\"); // Make sure a dispute has not been created yet.\n\n        lastInteraction = now;\n        if (claimantFee < arbitrationCost) { // The claimant still has to pay.\n        // This can also happens if he has paid, but arbitrationCost has increased.\n            status = Status.WaitingClaimant;\n            emit HasToPayFee(Party.Claimant);\n        } else { // The claimant has also paid the fee. We create the dispute\n            raiseDispute(arbitrationCost);\n        }\n    }\n\n    /** @dev Pay the arbitration fee to raise a dispute. To be called by the claimant. UNTRUSTED.\n     *  Note that this function mirror payArbitrationFeeByOwner.\n     */\n    function payArbitrationFeeByClaimant() public payable onlyClaimant {\n        uint arbitrationCost = arbitrator.arbitrationCost(arbitratorExtraData);\n        claimantFee += msg.value;\n        // Require that the total pay at least the arbitration cost.\n        require(claimantFee == arbitrationCost, \"Claimant fee must equal arbitration cost.\");\n        require(status < Status.DisputeCreated, \"A dispute has already been raised.\"); // Make sure a dispute has not been created yet.\n\n        lastInteraction = now;\n        if (ownerFee < arbitrationCost) { // The owner still has to pay. This can also happens if he has paid, but arbitrationCost has increased.\n            status = Status.WaitingOwner;\n            emit HasToPayFee(Party.Claimant);\n        } else { // The owner has also paid the fee. We create the dispute\n            raiseDispute(arbitrationCost);\n        }\n    }\n\n    /** @dev Create a dispute. UNTRUSTED.\n     *  @param _arbitrationCost Amount to pay the arbitrator.\n     */\n    function raiseDispute(uint _arbitrationCost) internal {\n        status = Status.DisputeCreated;\n        disputeID = arbitrator.createDispute.value(_arbitrationCost)(AMOUNT_OF_CHOICES,arbitratorExtraData);\n        emit Dispute(arbitrator, disputeID, 0, 0);\n    }\n\n    /** @dev Reimburse owner if claimant fails to pay the fee.\n     */\n    function timeOutByOwner() public onlyOwner {\n        require(status == Status.WaitingClaimant, \"The contract is not waiting for the claimant.\");\n        require(now >= lastInteraction + timeout, \"Not enough time has passed.\");\n\n        executeRuling(disputeID,OWNER_WINS);\n    }\n\n    /** @dev Pay claimant if owner fails to pay the fee.\n     */\n    function timeOutByClaimant() public onlyClaimant {\n        require(status == Status.WaitingOwner, \"The contract is not waiting for the owner.\");\n        require(now >= lastInteraction + timeout, \"Not enough time has passed.\");\n\n        executeRuling(disputeID, CLAIMANT_WINS);\n    }\n\n    /** @dev Execute a ruling of a dispute. Pays parties respective amounts based on ruling.\n     *  This needs to be extended by contract inheriting from it.\n     *  @param _disputeID ID of the dispute in the Arbitrator contract.\n     *  @param _ruling Ruling given by the arbitrator. 1 : Allow owner deposit. 2 : Pay claimant.\n     */\n    function executeRuling(uint _disputeID, uint _ruling) internal {\n        require(_disputeID == disputeID, \"Wrong dispute ID.\");\n        require(_ruling <= AMOUNT_OF_CHOICES, \"Invalid ruling.\");\n\n        if (_ruling == OWNER_WINS) {\n            owner.transfer(amount + claimAmount);\n            claimant.transfer(claimResponseAmount);\n        } else if (_ruling == CLAIMANT_WINS)\n            claimant.transfer(amount);\n        amount = 0;\n    }\n}\n",
  "sourcePath": "/home/pauladayn/React-Escrow/contracts/kleros-interaction/contracts/standard/arbitration/ArbitrableDeposit.sol",
  "compiler": {
    "name": "solc",
    "version": "0.4.25+commit.59dbf8f1.Emscripten.clang"
  },
  "schemaVersion": "3.3.4",
  "updatedAt": "2021-04-08T17:17:16.543Z",
  "devdoc": {
    "methods": {
      "claimResponse(uint256)": {
        "details": "Owner response to claimant. To be called when the owner initates a a response.",
        "params": {
          "_responseAmount": "The counter-offer amount the Owner proposes to a claimant."
        }
      },
      "deposit()": {
        "details": "Owner deposit to contract. To be called when the owner makes a deposit."
      },
      "makeClaim(uint256)": {
        "details": "File a claim against owner. To be called when someone makes a claim.",
        "params": {
          "_claimAmount": "The proposed claim amount by the claimant."
        }
      },
      "payArbitrationFeeByClaimant()": {
        "details": "Pay the arbitration fee to raise a dispute. To be called by the claimant. UNTRUSTED. Note that this function mirror payArbitrationFeeByOwner."
      },
      "payArbitrationFeeByOwner()": {
        "details": "Pay the arbitration fee to raise a dispute. To be called by the owner. UNTRUSTED. Note that the arbitrator can have createDispute throw, which will make this function throw and therefore lead to a party being timed-out. This is not a vulnerability as the arbitrator can rule in favor of one party anyway."
      },
      "rule(uint256,uint256)": {
        "details": "Give a ruling for a dispute. Must be called by the arbitrator. The purpose of this function is to ensure that the address calling it has the right to rule on the contract.",
        "params": {
          "_disputeID": "ID of the dispute in the Arbitrator contract.",
          "_ruling": "Ruling given by the arbitrator. Note that 0 is reserved for \"Not able/wanting to make a decision\"."
        }
      },
      "timeOutByClaimant()": {
        "details": "Pay claimant if owner fails to pay the fee."
      },
      "timeOutByOwner()": {
        "details": "Reimburse owner if claimant fails to pay the fee."
      }
    },
    "title": "Arbitrable Deposit This is a a contract which allow for an owner deposit. Anyone besides the owner can seek arbitration/file a claim as a claimant. To develop a contract inheriting from this one, you need to: - Redefine RULING_OPTIONS to explain the consequences of the possible rulings. - Redefine executeRuling while still calling super.executeRuling to implement the results of the arbitration."
  },
  "userdoc": {
    "methods": {}
  }
}