{
  "contractName": "CentralizedCourt",
  "abi": [
    {
      "constant": true,
      "inputs": [],
      "name": "deadline",
      "outputs": [
        {
          "name": "",
          "type": "uint256"
        }
      ],
      "payable": false,
      "stateMutability": "view",
      "type": "function"
    },
    {
      "constant": false,
      "inputs": [
        {
          "name": "_disputeID",
          "type": "uint256"
        },
        {
          "name": "_extraData",
          "type": "bytes"
        }
      ],
      "name": "appeal",
      "outputs": [],
      "payable": true,
      "stateMutability": "payable",
      "type": "function"
    },
    {
      "constant": true,
      "inputs": [
        {
          "name": "",
          "type": "uint256"
        }
      ],
      "name": "disputes",
      "outputs": [
        {
          "name": "arbitrated",
          "type": "address"
        },
        {
          "name": "choices",
          "type": "uint256"
        },
        {
          "name": "fee",
          "type": "uint256"
        },
        {
          "name": "status",
          "type": "uint8"
        },
        {
          "components": [
            {
              "name": "winningChoice",
              "type": "uint256"
            },
            {
              "name": "winningCount",
              "type": "uint256"
            }
          ],
          "name": "voteCounter",
          "type": "tuple"
        },
        {
          "name": "deadline",
          "type": "uint256"
        }
      ],
      "payable": false,
      "stateMutability": "view",
      "type": "function"
    },
    {
      "constant": true,
      "inputs": [
        {
          "name": "",
          "type": "uint256"
        }
      ],
      "name": "members",
      "outputs": [
        {
          "name": "",
          "type": "address"
        }
      ],
      "payable": false,
      "stateMutability": "view",
      "type": "function"
    },
    {
      "constant": true,
      "inputs": [],
      "name": "MAX_MEMBER_COUNT",
      "outputs": [
        {
          "name": "",
          "type": "uint256"
        }
      ],
      "payable": false,
      "stateMutability": "view",
      "type": "function"
    },
    {
      "constant": true,
      "inputs": [
        {
          "name": "",
          "type": "uint256"
        }
      ],
      "name": "requests",
      "outputs": [
        {
          "name": "status",
          "type": "uint8"
        },
        {
          "name": "fee",
          "type": "uint256"
        },
        {
          "name": "deadline",
          "type": "uint256"
        },
        {
          "components": [
            {
              "name": "winningChoice",
              "type": "uint256"
            },
            {
              "name": "winningCount",
              "type": "uint256"
            }
          ],
          "name": "voteCounter",
          "type": "tuple"
        }
      ],
      "payable": false,
      "stateMutability": "view",
      "type": "function"
    },
    {
      "constant": true,
      "inputs": [
        {
          "name": "",
          "type": "address"
        }
      ],
      "name": "isMember",
      "outputs": [
        {
          "name": "",
          "type": "bool"
        }
      ],
      "payable": false,
      "stateMutability": "view",
      "type": "function"
    },
    {
      "constant": true,
      "inputs": [
        {
          "name": "",
          "type": "address"
        }
      ],
      "name": "feeToCollect",
      "outputs": [
        {
          "name": "",
          "type": "uint256"
        }
      ],
      "payable": false,
      "stateMutability": "view",
      "type": "function"
    },
    {
      "constant": true,
      "inputs": [
        {
          "name": "_disputeID",
          "type": "uint256"
        }
      ],
      "name": "appealPeriod",
      "outputs": [
        {
          "name": "start",
          "type": "uint256"
        },
        {
          "name": "end",
          "type": "uint256"
        }
      ],
      "payable": false,
      "stateMutability": "view",
      "type": "function"
    },
    {
      "inputs": [
        {
          "name": "_arbitrationPrice",
          "type": "uint256"
        },
        {
          "name": "_members",
          "type": "address[]"
        },
        {
          "name": "_deadline",
          "type": "uint256"
        }
      ],
      "payable": false,
      "stateMutability": "nonpayable",
      "type": "constructor"
    },
    {
      "anonymous": false,
      "inputs": [
        {
          "indexed": false,
          "name": "_requestID",
          "type": "uint256"
        },
        {
          "indexed": false,
          "name": "_requester",
          "type": "address"
        }
      ],
      "name": "UpdatePriceRequestCreation",
      "type": "event"
    },
    {
      "anonymous": false,
      "inputs": [
        {
          "indexed": true,
          "name": "_disputeID",
          "type": "uint256"
        },
        {
          "indexed": true,
          "name": "_arbitrable",
          "type": "address"
        }
      ],
      "name": "DisputeCreation",
      "type": "event"
    },
    {
      "anonymous": false,
      "inputs": [
        {
          "indexed": true,
          "name": "_disputeID",
          "type": "uint256"
        },
        {
          "indexed": true,
          "name": "_arbitrable",
          "type": "address"
        }
      ],
      "name": "AppealPossible",
      "type": "event"
    },
    {
      "anonymous": false,
      "inputs": [
        {
          "indexed": true,
          "name": "_disputeID",
          "type": "uint256"
        },
        {
          "indexed": true,
          "name": "_arbitrable",
          "type": "address"
        }
      ],
      "name": "AppealDecision",
      "type": "event"
    },
    {
      "constant": false,
      "inputs": [
        {
          "name": "_choices",
          "type": "uint256"
        },
        {
          "name": "_extraData",
          "type": "bytes"
        }
      ],
      "name": "createDispute",
      "outputs": [
        {
          "name": "disputeID",
          "type": "uint256"
        }
      ],
      "payable": true,
      "stateMutability": "payable",
      "type": "function"
    },
    {
      "constant": false,
      "inputs": [
        {
          "name": "_disputeID",
          "type": "uint256"
        },
        {
          "name": "_ruling",
          "type": "uint256"
        }
      ],
      "name": "voteRuling",
      "outputs": [],
      "payable": false,
      "stateMutability": "nonpayable",
      "type": "function"
    },
    {
      "constant": false,
      "inputs": [],
      "name": "withdraw",
      "outputs": [],
      "payable": false,
      "stateMutability": "nonpayable",
      "type": "function"
    },
    {
      "constant": false,
      "inputs": [
        {
          "name": "_disputeID",
          "type": "uint256"
        }
      ],
      "name": "timeoutDecision",
      "outputs": [],
      "payable": false,
      "stateMutability": "nonpayable",
      "type": "function"
    },
    {
      "constant": true,
      "inputs": [
        {
          "name": "_disputeID",
          "type": "uint256"
        }
      ],
      "name": "disputeStatus",
      "outputs": [
        {
          "name": "status",
          "type": "uint8"
        }
      ],
      "payable": false,
      "stateMutability": "view",
      "type": "function"
    },
    {
      "constant": true,
      "inputs": [
        {
          "name": "_disputeID",
          "type": "uint256"
        }
      ],
      "name": "currentRuling",
      "outputs": [
        {
          "name": "ruling",
          "type": "uint256"
        }
      ],
      "payable": false,
      "stateMutability": "view",
      "type": "function"
    },
    {
      "constant": true,
      "inputs": [
        {
          "name": "_disputeID",
          "type": "uint256"
        },
        {
          "name": "_extraData",
          "type": "bytes"
        }
      ],
      "name": "appealCost",
      "outputs": [
        {
          "name": "fee",
          "type": "uint256"
        }
      ],
      "payable": false,
      "stateMutability": "view",
      "type": "function"
    },
    {
      "constant": true,
      "inputs": [
        {
          "name": "_requestID",
          "type": "uint256"
        }
      ],
      "name": "requestStatus",
      "outputs": [
        {
          "name": "status",
          "type": "uint8"
        }
      ],
      "payable": false,
      "stateMutability": "view",
      "type": "function"
    },
    {
      "constant": true,
      "inputs": [
        {
          "name": "_requestID",
          "type": "uint256"
        }
      ],
      "name": "currentRequestRuling",
      "outputs": [
        {
          "name": "ruling",
          "type": "uint256"
        }
      ],
      "payable": false,
      "stateMutability": "view",
      "type": "function"
    },
    {
      "constant": false,
      "inputs": [
        {
          "name": "_arbitrationPrice",
          "type": "uint256"
        }
      ],
      "name": "createUpdatePriceRequest",
      "outputs": [
        {
          "name": "requestID",
          "type": "uint256"
        }
      ],
      "payable": false,
      "stateMutability": "nonpayable",
      "type": "function"
    },
    {
      "constant": false,
      "inputs": [
        {
          "name": "_requestID",
          "type": "uint256"
        },
        {
          "name": "_ruling",
          "type": "uint256"
        }
      ],
      "name": "voteUpdatePriceRequest",
      "outputs": [],
      "payable": false,
      "stateMutability": "nonpayable",
      "type": "function"
    },
    {
      "constant": false,
      "inputs": [
        {
          "name": "_requestID",
          "type": "uint256"
        }
      ],
      "name": "timeoutUpdatePriceRequest",
      "outputs": [],
      "payable": false,
      "stateMutability": "nonpayable",
      "type": "function"
    },
    {
      "constant": true,
      "inputs": [
        {
          "name": "_extraData",
          "type": "bytes"
        }
      ],
      "name": "arbitrationCost",
      "outputs": [
        {
          "name": "fee",
          "type": "uint256"
        }
      ],
      "payable": false,
      "stateMutability": "view",
      "type": "function"
    }
  ],
  "bytecode": "0x60806040523480156200001157600080fd5b5060405162001bff38038062001bff833981016040908152815160208301519183015191909201805190919060009060321015620000d657604080517f08c379a000000000000000000000000000000000000000000000000000000000815260206004820152602560248201527f5175616e74697479206f66206d656d62657273206973206e6f7420737570706f60448201527f727465642e000000000000000000000000000000000000000000000000000000606482015290519081900360840190fd5b5060005b82518160ff161015620002185760056000848360ff16815181101515620000fd57fe5b6020908102909101810151600160a060020a031682528101919091526040016000205460ff161580156200015757508251600090849060ff84169081106200014157fe5b90602001906020020151600160a060020a031614155b1515620001c557604080517f08c379a000000000000000000000000000000000000000000000000000000000815260206004820152601d60248201527f496e76616c696420636f757274206d656d62657220616464726573732e000000604482015290519081900360640190fd5b600160056000858460ff16815181101515620001dd57fe5b602090810291909101810151600160a060020a03168252810191909152604001600020805460ff1916911515919091179055600101620000da565b600084905582516200023290600390602086019062000240565b505060045550620002d49050565b82805482825590600052602060002090810192821562000298579160200282015b82811115620002985782518254600160a060020a031916600160a060020a0390911617825560209092019160019091019062000261565b50620002a6929150620002aa565b5090565b620002d191905b80821115620002a6578054600160a060020a0319168155600101620002b1565b90565b61191b80620002e46000396000f3006080604052600436106101275763ffffffff7c010000000000000000000000000000000000000000000000000000000060003504166307af6fa8811461012c57806310f169e8146101465780631413240b146101825780631a3132021461019d5780631c3db16d146101c557806329dcb0cf146101ef5780632f174714146102045780633ccfd60b1461021c57806349912f8814610231578063564a565d146102825780635daf08ca1461030d5780635e4704691461034e578063681fc9211461036657806381d12c581461037b578063a230c524146103cc578063a3d2f13c1461040e578063a9b3738d14610426578063aaa2c18914610441578063afe15cfb1461046f578063c13517e1146104a0578063f23f16e6146104f1578063f7434ea91461054f575b600080fd5b34801561013857600080fd5b506101446004356105a8565b005b34801561015257600080fd5b5061015e600435610735565b6040518082600281111561016e57fe5b60ff16815260200191505060405180910390f35b34801561018e57600080fd5b50610144600435602435610763565b3480156101a957600080fd5b506101b5600435610ba6565b6040518082600181111561016e57fe5b3480156101d157600080fd5b506101dd600435610bd1565b60408051918252519081900360200190f35b3480156101fb57600080fd5b506101dd610c01565b34801561021057600080fd5b506101dd600435610c07565b34801561022857600080fd5b50610144610d00565b60408051602060046024803582810135601f8101859004850286018501909652858552610144958335953695604494919390910191908190840183828082843750949750610db49650505050505050565b34801561028e57600080fd5b5061029a600435610e75565b604051808773ffffffffffffffffffffffffffffffffffffffff1673ffffffffffffffffffffffffffffffffffffffff1681526020018681526020018581526020018460028111156102e857fe5b60ff168152602001838152602001828152602001965050505050505060405180910390f35b34801561031957600080fd5b50610325600435610eed565b6040805173ffffffffffffffffffffffffffffffffffffffff9092168252519081900360200190f35b34801561035a57600080fd5b50610144600435610f22565b34801561037257600080fd5b506101dd611108565b34801561038757600080fd5b5061039360043561110d565b604051808560018111156103a357fe5b60ff16815260200184815260200183815260200182815260200194505050505060405180910390f35b3480156103d857600080fd5b506103fa73ffffffffffffffffffffffffffffffffffffffff60043516611162565b604080519115158252519081900360200190f35b34801561041a57600080fd5b506101dd600435611177565b34801561043257600080fd5b506101446004356024356111a7565b34801561044d57600080fd5b506101dd73ffffffffffffffffffffffffffffffffffffffff6004351661152f565b34801561047b57600080fd5b50610487600435611541565b6040805192835260208301919091528051918290030190f35b60408051602060046024803582810135601f81018590048502860185019096528585526101dd9583359536956044949193909101919081908401838280828437509497506115499650505050505050565b3480156104fd57600080fd5b5060408051602060046024803582810135601f81018590048502860185019096528585526101dd95833595369560449491939091019190819084018382808284375094975061164a9650505050505050565b34801561055b57600080fd5b506040805160206004803580820135601f81018490048402850184019095528484526101dd9436949293602493928401919081908401838280828437509497506116719650505050505050565b6000806001838154811015156105ba57fe5b906000526020600020906008020191508160020154421015151561067957604080516000805160206118d0833981519152815260206004820152604160248201527f43616e206f6e6c792074696d656f7574206172626974726174696f6e2075706460448201527f617465207072696365207265717565737420616674657220646561646c696e6560648201527f2e00000000000000000000000000000000000000000000000000000000000000608482015290519081900360a40190fd5b6000825460ff16600181111561068b57fe5b1461070b57604080516000805160206118d0833981519152815260206004820152603f60248201527f43616e206f6e6c792074696d656f7574206172626974726174696f6e2075706460448201527f6174652070726963652072657175657374206e6f74207265736f6c7665642e00606482015290519081900360840190fd5b50805460ff191660019081178255600582018054909114156107305760018201546000555b505050565b600060028281548110151561074657fe5b60009182526020909120600a909102016003015460ff1692915050565b3360009081526005602052604081205481908190819060ff1615156107d757604080516000805160206118d0833981519152815260206004820152601760248201527f41646472657373206e6f7420617574686f72697a65642e000000000000000000604482015290519081900360640190fd5b856002818154811015156107e757fe5b600091825260208083203384526004600a90930201919091019052604090205460ff161561086457604080516000805160206118d0833981519152815260206004820152601360248201527f43616e206f6e6c7920766f7465206f6e63652e00000000000000000000000000604482015290519081900360640190fd5b8660028181548110151561087457fe5b90600052602060002090600a020160090154421015156108e357604080516000805160206118d0833981519152815260206004820152601e60248201527f43616e206f6e6c7920766f7465206265666f726520646561646c696e652e0000604482015290519081900360640190fd5b60028054899081106108f157fe5b90600052602060002090600a020195508560010154871115151561096457604080516000805160206118d0833981519152815260206004820152600f60248201527f496e76616c69642072756c696e672e0000000000000000000000000000000000604482015290519081900360640190fd5b6000600387015460ff16600281111561097957fe5b146109f957604080516000805160206118d0833981519152815260206004820152602a60248201527f43616e206f6e6c7920766f746520666f72206469737075746573206e6f74207960448201527f657420736f6c7665642e00000000000000000000000000000000000000000000606482015290519081900360840190fd5b33600081815260048801602090815260408083208054600160ff1990911681179091558b845260058b0180845282852080548301815583518085019094529583528284018d815260088d018054808501825590875285872094516002909102909401805473ffffffffffffffffffffffffffffffffffffffff191673ffffffffffffffffffffffffffffffffffffffff90951694909417845551929091019190915560078a0154928b9052905290546006880196501115610ad25760008781526005870160205260409020546001860155868555610af3565b600087815260058701602052604090205460018601541415610af357600085555b600354600088815260058801602052604090205460029091041015610b9c576003546002870154811515610b2357fe5b049350600092505b60035460ff84161015610b9357836006600060038660ff16815481101515610b4f57fe5b600091825260208083209091015473ffffffffffffffffffffffffffffffffffffffff16835282019290925260400190208054909101905560019290920191610b2b565b610b9c88611678565b5050505050505050565b6000600182815481101515610bb757fe5b600091825260209091206008909102015460ff1692915050565b6000806000600284815481101515610be557fe5b600091825260209091206006600a909202010154949350505050565b60045481565b33600090815260056020526040812054819060ff161515610c7757604080516000805160206118d0833981519152815260206004820152601760248201527f41646472657373206e6f7420617574686f72697a65642e000000000000000000604482015290519081900360640190fd5b6001805490610c889082810161175a565b9150600182815481101515610c9957fe5b6000918252602091829020600454420160026008909302909101918201556001810185905560408051858152339381019390935280519193507f9011098ae2ed7c0cfb6491712d3cf106db25f4a32a124ac7e39f5d4925e7cd25928290030190a150919050565b3360009081526005602052604081205460ff161515610d6e57604080516000805160206118d0833981519152815260206004820152601760248201527f41646472657373206e6f7420617574686f72697a65642e000000000000000000604482015290519081900360640190fd5b5033600081815260066020526040808220805490839055905190929183156108fc02918491818181858888f19350505050158015610db0573d6000803e3d6000fd5b5050565b8181610dc0828261164a565b341015610e4257604080516000805160206118d0833981519152815260206004820152602560248201527f4e6f7420656e6f7567682045544820746f20636f7665722061707065616c206360448201527f6f7374732e000000000000000000000000000000000000000000000000000000606482015290519081900360840190fd5b604051339085907f9c9b64db9e130f48381bf697abf638e73117dbfbfd7a4484f2da3ba188f4187d90600090a350505050565b6002805482908110610e8357fe5b6000918252602091829020600a909102018054600182015460028301546003840154604080518082019091526006860154815260078601549681019690965260099094015473ffffffffffffffffffffffffffffffffffffffff90931695509093909260ff169186565b6003805482908110610efb57fe5b60009182526020909120015473ffffffffffffffffffffffffffffffffffffffff16905081565b6000806000600284815481101515610f3657fe5b90600052602060002090600a0201925082600901544210151515610fcf57604080516000805160206118d0833981519152815260206004820152602960248201527f43616e206f6e6c792074696d656f75742064697370757465732061667465722060448201527f646561646c696e652e0000000000000000000000000000000000000000000000606482015290519081900360840190fd5b6000600384015460ff166002811115610fe457fe5b1461106457604080516000805160206118d0833981519152815260206004820152602760248201527f43616e206f6e6c792074696d656f7574206469737075746573206e6f7420726560448201527f736f6c7665642e00000000000000000000000000000000000000000000000000606482015290519081900360840190fd5b6008830154600010156110f9576008830154600284015481151561108457fe5b049150600090505b600883015460ff821610156110f9578160066000856008018460ff168154811015156110b457fe5b6000918252602080832060029092029091015473ffffffffffffffffffffffffffffffffffffffff16835282019290925260400190208054909101905560010161108c565b61110284611678565b50505050565b603281565b600180548290811061111b57fe5b600091825260209182902060089091020180546001820154600283015460408051808201909152600585015481526006909401549484019490945260ff9091169350919084565b60056020526000908152604090205460ff1681565b600080600060018481548110151561118b57fe5b6000918252602090912060056008909202010154949350505050565b33600090815260056020526040812054819060ff16151561121757604080516000805160206118d0833981519152815260206004820152601760248201527f41646472657373206e6f7420617574686f72697a65642e000000000000000000604482015290519081900360640190fd5b6003831061127457604080516000805160206118d0833981519152815260206004820152600f60248201527f496e76616c6964206f7074696f6e2e0000000000000000000000000000000000604482015290519081900360640190fd5b600180548590811061128257fe5b906000526020600020906008020191504282600201541115156112f457604080516000805160206118d0833981519152815260206004820152601e60248201527f43616e206f6e6c7920766f7465206265666f726520646561646c696e652e0000604482015290519081900360640190fd5b33600090815260038301602052604090205460ff161561136357604080516000805160206118d0833981519152815260206004820152601360248201527f43616e206f6e6c7920766f7465206f6e63652e00000000000000000000000000604482015290519081900360640190fd5b6000825460ff16600181111561137557fe5b146113f557604080516000805160206118d0833981519152815260206004820152602a60248201527f43616e206f6e6c7920766f7465206f6e207265717565737473206e6f7420796560448201527f7420646563696465642e00000000000000000000000000000000000000000000606482015290519081900360840190fd5b5033600081815260038301602090815260408083208054600160ff199091168117909155868452600486018084528285208054830181558351808501909452958352828401888152600788018054808501825590875285872094516002909102909401805473ffffffffffffffffffffffffffffffffffffffff191673ffffffffffffffffffffffffffffffffffffffff90951694909417845551929091019190915560068501549286905290529054600583019110156114ce57600083815260048301602052604090205460018201558281556114ef565b6000838152600483016020526040902054600182015414156114ef57600081555b60035460008481526004840160205260409020546002909104101561110257815460ff191660019081178355815414156111025750600101546000555050565b60066020526000908152604090205481565b600080915091565b6000805481903410156115ab57604080516000805160206118d0833981519152815260206004820152601a60248201527f446964206e6f742073656e6420656e6f7567682065746865722e000000000000604482015290519081900360640190fd5b60028054906115bd9060018301611786565b91506002828154811015156115ce57fe5b60009182526020822060045442016009600a9093029091019182015560018101869055805473ffffffffffffffffffffffffffffffffffffffff19163390811782553460028301556040519193509184917f141dfc18aa6a56fc816f44f0e9e2f1ebc92b15ab167770e17db5b084c10ed9959190a35092915050565b7f7fffffffffffffffffffffffffffffffffffffffffffffffffffffffffffffff92915050565b5060005490565b600080600060028481548110151561168c57fe5b600091825260208220600a90910201805473ffffffffffffffffffffffffffffffffffffffff198116825560038201805460ff19166002179055600682018054604080517f311a6c56000000000000000000000000000000000000000000000000000000008152600481018b905260248101929092525193975090955073ffffffffffffffffffffffffffffffffffffffff9091169350839263311a6c569260448084019382900301818387803b15801561174657600080fd5b505af1158015610b9c573d6000803e3d6000fd5b8154818355818111156107305760080281600802836000526020600020918201910161073091906117b2565b81548183558181111561073057600a0281600a0283600052602060002091820191016107309190611803565b61180091905b808211156117fc57805460ff191681556000600182018190556002820181905560058201819055600682018190556117f36007830182611873565b506008016117b8565b5090565b90565b61180091905b808211156117fc57805473ffffffffffffffffffffffffffffffffffffffff191681556000600182018190556002820181905560038201805460ff1916905560068201819055600782018190556118636008830182611873565b5060006009820155600a01611809565b50805460008255600202906000526020600020908101906118949190611897565b50565b61180091905b808211156117fc57805473ffffffffffffffffffffffffffffffffffffffff191681556000600182015560020161189d560008c379a000000000000000000000000000000000000000000000000000000000a165627a7a723058205f6ff7aae994b73640bb08570cb6c5ebc931e147ddbc35f15e6346578d8b0a540029",
  "source": "/**\n *  @title Arbitration Standard\n *  @author Gabriel Oliveira Mendanha - <gabrielmendanha@icloud.com>\n *  Bug Bounties: This code hasn't undertaken a bug bounty program yet.\n */\n\n\npragma solidity ^0.4.15;\n\nimport \"./Arbitrator.sol\";\n\n/** @title Centralized Court\n *  This is a centralized court deciding the result of disputes.\n *  No appeals are possible.\n */\n\ncontract CentralizedCourt is Arbitrator {\n\n    uint arbitrationPrice; // Not public because arbitrationCost already acts as an accessor.\n    uint constant NOT_PAYABLE_VALUE = (2**256-2)/2; // High value to be sure that the appeal is too expensive.\n\n    struct VoteCounter {\n        uint winningChoice; // The choice which currently has the highest amount of votes. Is 0 in case of a tie.\n        uint winningCount;  // The number of votes for winningChoice. Or for the choices which are tied.\n    }\n\n    struct Vote {\n        address account; // The juror who casted the vote.\n        uint ruling;     // The ruling which was given.\n    }\n\n    enum PriceRequestStatus {Waiting, Solved}\n\n    struct ArbitrationPriceRequest {\n        PriceRequestStatus status;\n        uint fee; // The new minimum fee to be paid for the arbitration service.\n        uint deadline;\n        mapping (address => bool) hasVoted;\n        mapping (uint => uint) voteCount; // voteCount[choice] is the number of votes for choice.\n        VoteCounter voteCounter;\n        Vote[] votes;\n    }\n\n    struct Dispute {\n        Arbitrable arbitrated;\n        uint choices;\n        uint fee;\n        DisputeStatus status;\n        mapping (address => bool) hasVoted;\n        mapping (uint => uint) voteCount; // voteCount[choice] is the number of votes for choice.\n        VoteCounter voteCounter;\n        Vote[] votes;\n        uint deadline;\n    }\n\n    /** @dev To be raised when an request to update the arbitration price is created.\n     *  @param _requestID ID of the request.\n     *  @param _requester The address that created the request.\n     */\n    event UpdatePriceRequestCreation(uint _requestID, address _requester);\n\n    ArbitrationPriceRequest[] public requests;\n\n    Dispute[] public disputes;\n    address[] public members;\n    uint public deadline;\n    mapping (address => bool) public isMember;\n    mapping (address => uint) public feeToCollect;\n\n    uint constant public MAX_MEMBER_COUNT = 50;\n\n    modifier onlyCourtMember() {\n        require(isMember[msg.sender], \"Address not authorized.\");\n        _;\n    }\n\n    modifier whoHasNotVoted(uint _disputeID) {\n        require(!disputes[_disputeID].hasVoted[msg.sender], \"Can only vote once.\");\n        _;\n    }\n\n    modifier beforeDeadline(uint _disputeID) {\n        require(now < disputes[_disputeID].deadline, \"Can only vote before deadline.\");\n        _;\n    }\n\n\n    /** @dev Constructor. Set the initial arbitration price.\n     *  @param _arbitrationPrice Amount to be paid for arbitration.\n     *  @param _members Array of addresses allowed to rule.\n     *  @param _deadline Amount of time in seconds for deadline e.g: 1 day = 86400 seconds.\n     */\n    constructor (uint _arbitrationPrice, address[] _members, uint _deadline) public {\n        require(_members.length <= MAX_MEMBER_COUNT, \"Quantity of members is not supported.\");\n        for(uint8 i = 0; i < _members.length; i++){\n            require(!isMember[_members[i]] && _members[i] != address(0), \"Invalid court member address.\");\n            isMember[_members[i]] = true;\n        }\n        arbitrationPrice = _arbitrationPrice;\n        members = _members;\n        deadline = _deadline;\n    }\n\n\n    /** @dev Create a dispute. Must be called by the arbitrable contract.\n     *  Must be paid at least arbitrationCost().\n     *  @param _choices Amount of choices the arbitrator can make in this dispute. When ruling ruling<=choices.\n     *  @param _extraData Not used by this contract.\n     *  @return disputeID ID of the dispute created.\n     */\n    function createDispute(uint _choices, bytes _extraData) public payable returns(uint disputeID)  {\n        require(msg.value >= arbitrationPrice, \"Did not send enough ether.\");\n\n        disputeID = disputes.length++;\n        Dispute storage dispute = disputes[disputeID];\n        dispute.deadline = now + deadline;\n        dispute.choices = _choices;\n        dispute.arbitrated = Arbitrable(msg.sender);\n        dispute.fee = msg.value;\n\n        emit DisputeCreation(disputeID, Arbitrable(msg.sender));\n        return disputeID;\n    }\n\n    /** @dev Give a ruling. UNTRUSTED. Only callabe by court members.\n     *  @param _disputeID ID of the dispute to rule.\n     *  @param _ruling Ruling given by the arbitrator. Note that 0 means \"Not able/wanting to make a decision\".\n     */\n    function voteRuling(uint _disputeID, uint _ruling) public onlyCourtMember whoHasNotVoted(_disputeID) beforeDeadline(_disputeID) {\n        Dispute storage dispute = disputes[_disputeID];\n        require(_ruling<=dispute.choices, \"Invalid ruling.\");\n        require(dispute.status == DisputeStatus.Waiting, \"Can only vote for disputes not yet solved.\");\n\n        dispute.hasVoted[msg.sender] = true;\n        dispute.voteCount[_ruling] += 1;\n\n        dispute.votes.push(\n            Vote({\n                account: msg.sender,\n                ruling: _ruling\n            })\n        );\n\n        VoteCounter storage voteCounter = dispute.voteCounter;\n        if(dispute.voteCount[_ruling] > voteCounter.winningCount){\n            voteCounter.winningCount = dispute.voteCount[_ruling];\n            voteCounter.winningChoice = _ruling;\n        }  else if (voteCounter.winningCount == dispute.voteCount[_ruling]) {\n            voteCounter.winningChoice = 0; // It's currently a tie.\n        }\n\n        if(dispute.voteCount[_ruling] > (members.length/2)) { // We have got the will of the majority.\n            uint feeInWei = dispute.fee/members.length;\n            for(uint8 i = 0; i < members.length; i++){\n                feeToCollect[members[i]] += feeInWei;\n            }\n            executeRuling(_disputeID);\n        }\n    }\n\n    /** @dev Do all the internal work and executes the rule function.\n     *  @param _disputeID ID of the dispute to rule.\n     */\n    function executeRuling(uint _disputeID) internal {\n        Dispute storage dispute = disputes[_disputeID];\n        VoteCounter storage voteCounter = dispute.voteCounter;\n        Arbitrable arbitrated = dispute.arbitrated;\n        dispute.arbitrated = Arbitrable(0x0); // Clean up to get gas back and prevent calling it again.\n        dispute.status = DisputeStatus.Solved;\n\n        arbitrated.rule(_disputeID, voteCounter.winningChoice);\n    }\n\n    /** @dev Tranfers any balance the court member has. Only callabe by court members. */\n    function withdraw() public onlyCourtMember {\n        uint feeInWei = feeToCollect[msg.sender];\n        feeToCollect[msg.sender] = 0;\n        msg.sender.transfer(feeInWei);\n    }\n\n    /** @dev Forces a decision by timeout, fee is splited between court members who voted.\n     *  @param _disputeID ID of the dispute to rule.\n     */\n    function timeoutDecision(uint _disputeID) public {\n        Dispute storage dispute = disputes[_disputeID];\n        require(now >= dispute.deadline, \"Can only timeout disputes after deadline.\");\n        require(dispute.status == DisputeStatus.Waiting, \"Can only timeout disputes not resolved.\");\n\n        if(dispute.votes.length > 0){\n            uint feeInWei = dispute.fee/dispute.votes.length;\n\n            for(uint8 i = 0; i < dispute.votes.length; i++) {\n                feeToCollect[dispute.votes[i].account] += feeInWei;\n            }\n        }\n\n        executeRuling(_disputeID);\n    }\n\n    /** @dev Return the status of a dispute.\n     *  @param _disputeID ID of the dispute to rule.\n     *  @return status The status of the dispute.\n     */\n    function disputeStatus(uint _disputeID) public view returns(DisputeStatus status) {\n        return disputes[_disputeID].status;\n    }\n\n    /** @dev Return the ruling of a dispute.\n     *  @param _disputeID ID of the dispute.\n     *  @return ruling The ruling which would or has been given.\n     */\n    function currentRuling(uint _disputeID) public view returns(uint ruling) {\n        Dispute storage dispute = disputes[_disputeID];\n        VoteCounter storage voteCounter = dispute.voteCounter;\n        return voteCounter.winningChoice;\n    }\n\n    /** @dev Cost of appeal. Since it is not possible, it's a high value which can never be paid.\n     *  @param _disputeID ID of the dispute to be appealed. Not used by this contract.\n     *  @param _extraData Not used by this contract.\n     *  @return fee Amount to be paid.\n     */\n    function appealCost(uint _disputeID, bytes _extraData) public view returns(uint fee) {\n        return NOT_PAYABLE_VALUE;\n    }\n\n    /** @dev Return the status of an update price request.\n     *  @param _requestID ID of the request.\n     *  @return status The status of the request.\n     */\n    function requestStatus(uint _requestID) public view returns(PriceRequestStatus status) {\n        return requests[_requestID].status;\n    }\n\n    /** @dev Return the ruling of an arbitration price update request.\n     *  @param _requestID ID of the request.\n     *  @return ruling The ruling which would or has been given.\n     */\n    function currentRequestRuling(uint _requestID) public view returns(uint ruling) {\n        ArbitrationPriceRequest storage request = requests[_requestID];\n        VoteCounter storage voteCounter = request.voteCounter;\n        return voteCounter.winningChoice;\n    }\n\n\n    /** @dev Creates a request to update the arbitration price. Only callable by court members.\n     *  @param _arbitrationPrice Amount to be paid for arbitration.\n     *  @return requestID The id of the update price request created.\n     */\n    function createUpdatePriceRequest(uint _arbitrationPrice) public onlyCourtMember returns(uint requestID) {\n\n        requestID = requests.length++;\n        ArbitrationPriceRequest storage request = requests[requestID];\n        request.deadline = now + deadline;\n        request.fee = _arbitrationPrice;\n\n        emit UpdatePriceRequestCreation(requestID, msg.sender);\n        return requestID;\n    }\n\n\n    /** @dev Vote for a price update request. Vote 1 for 'YES', 2 for 'NO'. Only callabe by court members.\n     *  @param _requestID ID of the dispute to rule.\n     *  @param _ruling Ruling given by the arbitrator. Note that 0 means \"Not able/wanting to make a decision\".\n     */\n    function voteUpdatePriceRequest(uint _requestID, uint _ruling) public onlyCourtMember {\n        require(_ruling < 3, \"Invalid option.\");\n        ArbitrationPriceRequest storage request = requests[_requestID];\n        require(request.deadline > now, \"Can only vote before deadline.\");\n        require(!request.hasVoted[msg.sender], \"Can only vote once.\");\n        require(request.status == PriceRequestStatus.Waiting, \"Can only vote on requests not yet decided.\");\n\n        request.hasVoted[msg.sender] = true;\n        request.voteCount[_ruling] += 1;\n\n        request.votes.push(\n            Vote({\n                account: msg.sender,\n                ruling: _ruling\n            })\n        );\n\n        VoteCounter storage voteCounter = request.voteCounter;\n        if(request.voteCount[_ruling] > voteCounter.winningCount){\n            voteCounter.winningCount = request.voteCount[_ruling];\n            voteCounter.winningChoice = _ruling;\n        }  else if (voteCounter.winningCount == request.voteCount[_ruling]) {\n            voteCounter.winningChoice = 0; // It's currently a tie.\n        }\n\n        if(request.voteCount[_ruling] > (members.length/2)) { // We have got the will of the majority.\n            request.status = PriceRequestStatus.Solved;\n            if(voteCounter.winningChoice == 1) {\n                arbitrationPrice = request.fee;\n            }\n        }\n    }\n\n\n    /** @dev Forces a decision by timeout, update the arbitration price if majority decide 'YES'.\n     *  @param _requestID ID of the request to timeout.\n     */\n    function timeoutUpdatePriceRequest(uint _requestID) public {\n        ArbitrationPriceRequest storage request = requests[_requestID];\n        require(now >= request.deadline, \"Can only timeout arbitration update price request after deadline.\");\n        require(request.status == PriceRequestStatus.Waiting, \"Can only timeout arbitration update price request not resolved.\");\n        \n        request.status = PriceRequestStatus.Solved;\n        VoteCounter storage voteCounter = request.voteCounter;\n\n        if(voteCounter.winningChoice == 1) {\n            arbitrationPrice = request.fee;\n        }\n    }\n\n    /** @dev Cost of arbitration. Accessor to arbitrationPrice.\n     *  @param _extraData Not used by this contract.\n     *  @return fee Amount to be paid.\n     */\n    function arbitrationCost(bytes _extraData) public view returns(uint fee) {\n        return arbitrationPrice;\n    }\n}",
  "sourcePath": "/home/pauladayn/React-Escrow/contracts/kleros-interaction/contracts/standard/arbitration/CentralizedCourt.sol",
  "compiler": {
    "name": "solc",
    "version": "0.4.25+commit.59dbf8f1.Emscripten.clang"
  },
  "schemaVersion": "3.3.4",
  "updatedAt": "2021-04-08T17:17:16.562Z",
  "devdoc": {
    "methods": {
      "appeal(uint256,bytes)": {
        "details": "Appeal a ruling. Note that it has to be called before the arbitrator contract calls rule.",
        "params": {
          "_disputeID": "ID of the dispute to be appealed.",
          "_extraData": "Can be used to give extra info on the appeal."
        }
      },
      "appealCost(uint256,bytes)": {
        "details": "Cost of appeal. Since it is not possible, it's a high value which can never be paid.",
        "params": {
          "_disputeID": "ID of the dispute to be appealed. Not used by this contract.",
          "_extraData": "Not used by this contract."
        },
        "return": "fee Amount to be paid."
      },
      "appealPeriod(uint256)": {
        "details": "Compute the start and end of the dispute's current or next appeal period, if possible.",
        "params": {
          "_disputeID": "ID of the dispute."
        },
        "return": "The start and end of the period."
      },
      "arbitrationCost(bytes)": {
        "details": "Cost of arbitration. Accessor to arbitrationPrice.",
        "params": {
          "_extraData": "Not used by this contract."
        },
        "return": "fee Amount to be paid."
      },
      "createDispute(uint256,bytes)": {
        "details": "Create a dispute. Must be called by the arbitrable contract. Must be paid at least arbitrationCost().",
        "params": {
          "_choices": "Amount of choices the arbitrator can make in this dispute. When ruling ruling<=choices.",
          "_extraData": "Not used by this contract."
        },
        "return": "disputeID ID of the dispute created."
      },
      "createUpdatePriceRequest(uint256)": {
        "details": "Creates a request to update the arbitration price. Only callable by court members.",
        "params": {
          "_arbitrationPrice": "Amount to be paid for arbitration."
        },
        "return": "requestID The id of the update price request created."
      },
      "currentRequestRuling(uint256)": {
        "details": "Return the ruling of an arbitration price update request.",
        "params": {
          "_requestID": "ID of the request."
        },
        "return": "ruling The ruling which would or has been given."
      },
      "currentRuling(uint256)": {
        "details": "Return the ruling of a dispute.",
        "params": {
          "_disputeID": "ID of the dispute."
        },
        "return": "ruling The ruling which would or has been given."
      },
      "disputeStatus(uint256)": {
        "details": "Return the status of a dispute.",
        "params": {
          "_disputeID": "ID of the dispute to rule."
        },
        "return": "status The status of the dispute."
      },
      "requestStatus(uint256)": {
        "details": "Return the status of an update price request.",
        "params": {
          "_requestID": "ID of the request."
        },
        "return": "status The status of the request."
      },
      "timeoutDecision(uint256)": {
        "details": "Forces a decision by timeout, fee is splited between court members who voted.",
        "params": {
          "_disputeID": "ID of the dispute to rule."
        }
      },
      "timeoutUpdatePriceRequest(uint256)": {
        "details": "Forces a decision by timeout, update the arbitration price if majority decide 'YES'.",
        "params": {
          "_requestID": "ID of the request to timeout."
        }
      },
      "voteRuling(uint256,uint256)": {
        "details": "Give a ruling. UNTRUSTED. Only callabe by court members.",
        "params": {
          "_disputeID": "ID of the dispute to rule.",
          "_ruling": "Ruling given by the arbitrator. Note that 0 means \"Not able/wanting to make a decision\"."
        }
      },
      "voteUpdatePriceRequest(uint256,uint256)": {
        "details": "Vote for a price update request. Vote 1 for 'YES', 2 for 'NO'. Only callabe by court members.",
        "params": {
          "_requestID": "ID of the dispute to rule.",
          "_ruling": "Ruling given by the arbitrator. Note that 0 means \"Not able/wanting to make a decision\"."
        }
      },
      "withdraw()": {
        "details": "Tranfers any balance the court member has. Only callabe by court members. "
      }
    },
    "title": "Centralized Court This is a centralized court deciding the result of disputes. No appeals are possible."
  },
  "userdoc": {
    "methods": {}
  }
}