{
  "contractName": "CentralizedArbitrator",
  "abi": [
    {
      "constant": false,
      "inputs": [
        {
          "name": "_disputeID",
          "type": "uint256"
        },
        {
          "name": "_extraData",
          "type": "bytes"
        }
      ],
      "name": "appeal",
      "outputs": [],
      "payable": true,
      "stateMutability": "payable",
      "type": "function"
    },
    {
      "constant": true,
      "inputs": [
        {
          "name": "",
          "type": "uint256"
        }
      ],
      "name": "disputes",
      "outputs": [
        {
          "name": "arbitrated",
          "type": "address"
        },
        {
          "name": "choices",
          "type": "uint256"
        },
        {
          "name": "fee",
          "type": "uint256"
        },
        {
          "name": "ruling",
          "type": "uint256"
        },
        {
          "name": "status",
          "type": "uint8"
        }
      ],
      "payable": false,
      "stateMutability": "view",
      "type": "function"
    },
    {
      "constant": true,
      "inputs": [],
      "name": "owner",
      "outputs": [
        {
          "name": "",
          "type": "address"
        }
      ],
      "payable": false,
      "stateMutability": "view",
      "type": "function"
    },
    {
      "constant": true,
      "inputs": [
        {
          "name": "_disputeID",
          "type": "uint256"
        }
      ],
      "name": "appealPeriod",
      "outputs": [
        {
          "name": "start",
          "type": "uint256"
        },
        {
          "name": "end",
          "type": "uint256"
        }
      ],
      "payable": false,
      "stateMutability": "view",
      "type": "function"
    },
    {
      "inputs": [
        {
          "name": "_arbitrationPrice",
          "type": "uint256"
        }
      ],
      "payable": false,
      "stateMutability": "nonpayable",
      "type": "constructor"
    },
    {
      "anonymous": false,
      "inputs": [
        {
          "indexed": true,
          "name": "_disputeID",
          "type": "uint256"
        },
        {
          "indexed": true,
          "name": "_arbitrable",
          "type": "address"
        }
      ],
      "name": "DisputeCreation",
      "type": "event"
    },
    {
      "anonymous": false,
      "inputs": [
        {
          "indexed": true,
          "name": "_disputeID",
          "type": "uint256"
        },
        {
          "indexed": true,
          "name": "_arbitrable",
          "type": "address"
        }
      ],
      "name": "AppealPossible",
      "type": "event"
    },
    {
      "anonymous": false,
      "inputs": [
        {
          "indexed": true,
          "name": "_disputeID",
          "type": "uint256"
        },
        {
          "indexed": true,
          "name": "_arbitrable",
          "type": "address"
        }
      ],
      "name": "AppealDecision",
      "type": "event"
    },
    {
      "constant": false,
      "inputs": [
        {
          "name": "_arbitrationPrice",
          "type": "uint256"
        }
      ],
      "name": "setArbitrationPrice",
      "outputs": [],
      "payable": false,
      "stateMutability": "nonpayable",
      "type": "function"
    },
    {
      "constant": true,
      "inputs": [
        {
          "name": "_extraData",
          "type": "bytes"
        }
      ],
      "name": "arbitrationCost",
      "outputs": [
        {
          "name": "fee",
          "type": "uint256"
        }
      ],
      "payable": false,
      "stateMutability": "view",
      "type": "function"
    },
    {
      "constant": true,
      "inputs": [
        {
          "name": "_disputeID",
          "type": "uint256"
        },
        {
          "name": "_extraData",
          "type": "bytes"
        }
      ],
      "name": "appealCost",
      "outputs": [
        {
          "name": "fee",
          "type": "uint256"
        }
      ],
      "payable": false,
      "stateMutability": "view",
      "type": "function"
    },
    {
      "constant": false,
      "inputs": [
        {
          "name": "_choices",
          "type": "uint256"
        },
        {
          "name": "_extraData",
          "type": "bytes"
        }
      ],
      "name": "createDispute",
      "outputs": [
        {
          "name": "disputeID",
          "type": "uint256"
        }
      ],
      "payable": true,
      "stateMutability": "payable",
      "type": "function"
    },
    {
      "constant": false,
      "inputs": [
        {
          "name": "_disputeID",
          "type": "uint256"
        },
        {
          "name": "_ruling",
          "type": "uint256"
        }
      ],
      "name": "giveRuling",
      "outputs": [],
      "payable": false,
      "stateMutability": "nonpayable",
      "type": "function"
    },
    {
      "constant": true,
      "inputs": [
        {
          "name": "_disputeID",
          "type": "uint256"
        }
      ],
      "name": "disputeStatus",
      "outputs": [
        {
          "name": "status",
          "type": "uint8"
        }
      ],
      "payable": false,
      "stateMutability": "view",
      "type": "function"
    },
    {
      "constant": true,
      "inputs": [
        {
          "name": "_disputeID",
          "type": "uint256"
        }
      ],
      "name": "currentRuling",
      "outputs": [
        {
          "name": "ruling",
          "type": "uint256"
        }
      ],
      "payable": false,
      "stateMutability": "view",
      "type": "function"
    }
  ],
  "bytecode": "0x608060405260008054600160a060020a0319163317905534801561002257600080fd5b50604051602080610b138339810160405251600155610acd806100466000396000f3006080604052600436106100ae5763ffffffff7c010000000000000000000000000000000000000000000000000000000060003504166310f169e881146100b35780631c3db16d146100ef57806349912f8814610119578063564a565d1461016c5780638da5cb5b146101f0578063afe15cfb1461022e578063c13517e11461025f578063c97c4d5c146102b0578063f23f16e6146102cb578063f7434ea914610329578063ffb43c4814610382575b600080fd5b3480156100bf57600080fd5b506100cb60043561039a565b604051808260028111156100db57fe5b60ff16815260200191505060405180910390f35b3480156100fb57600080fd5b506101076004356103c8565b60408051918252519081900360200190f35b60408051602060046024803582810135601f810185900485028601850190965285855261016a9583359536956044949193909101919081908401838280828437509497506103f29650505050505050565b005b34801561017857600080fd5b506101846004356104c5565b604051808673ffffffffffffffffffffffffffffffffffffffff1673ffffffffffffffffffffffffffffffffffffffff1681526020018581526020018481526020018381526020018260028111156101d857fe5b60ff1681526020019550505050505060405180910390f35b3480156101fc57600080fd5b5061020561051e565b6040805173ffffffffffffffffffffffffffffffffffffffff9092168252519081900360200190f35b34801561023a57600080fd5b5061024660043561053a565b6040805192835260208301919091528051918290030190f35b60408051602060046024803582810135601f81018590048502860185019096528585526101079583359536956044949193909101919081908401838280828437509497506105429650505050505050565b3480156102bc57600080fd5b5061016a600435602435610691565b3480156102d757600080fd5b5060408051602060046024803582810135601f81018590048502860185019096528585526101079583359536956044949193909101919081908401838280828437509497506107259650505050505050565b34801561033557600080fd5b506040805160206004803580820135601f810184900484028501840190955284845261010794369492936024939284019190819084018382808284375094975061074c9650505050505050565b34801561038e57600080fd5b5061016a600435610753565b60006002828154811015156103ab57fe5b600091825260209091206005909102016004015460ff1692915050565b60006002828154811015156103d957fe5b9060005260206000209060050201600301549050919050565b81816103fe8282610725565b34101561049257604080517f08c379a000000000000000000000000000000000000000000000000000000000815260206004820152602560248201527f4e6f7420656e6f7567682045544820746f20636f7665722061707065616c206360448201527f6f7374732e000000000000000000000000000000000000000000000000000000606482015290519081900360840190fd5b604051339085907f9c9b64db9e130f48381bf697abf638e73117dbfbfd7a4484f2da3ba188f4187d90600090a350505050565b60028054829081106104d357fe5b60009182526020909120600590910201805460018201546002830154600384015460049094015473ffffffffffffffffffffffffffffffffffffffff90931694509092909160ff1685565b60005473ffffffffffffffffffffffffffffffffffffffff1681565b600080915091565b600061054e83836107de565b506001600260a0604051908101604052803373ffffffffffffffffffffffffffffffffffffffff168152602001868152602001348152602001600081526020016000600281111561059b57fe5b9052815460018082018085556000948552602094859020845160059094020180547fffffffffffffffffffffffff00000000000000000000000000000000000000001673ffffffffffffffffffffffffffffffffffffffff909416939093178355938301518282015560408301516002808401919091556060840151600384015560808401516004840180549193909260ff1990921691849081111561063d57fe5b021790555050500390503373ffffffffffffffffffffffffffffffffffffffff16817f141dfc18aa6a56fc816f44f0e9e2f1ebc92b15ab167770e17db5b084c10ed99560405160405180910390a392915050565b60005473ffffffffffffffffffffffffffffffffffffffff16331461071757604080517f08c379a000000000000000000000000000000000000000000000000000000000815260206004820181905260248201527f43616e206f6e6c792062652063616c6c656420627920746865206f776e65722e604482015290519081900360640190fd5b6107218282610885565b5050565b7f7fffffffffffffffffffffffffffffffffffffffffffffffffffffffffffffff92915050565b5060015490565b60005473ffffffffffffffffffffffffffffffffffffffff1633146107d957604080517f08c379a000000000000000000000000000000000000000000000000000000000815260206004820181905260248201527f43616e206f6e6c792062652063616c6c656420627920746865206f776e65722e604482015290519081900360640190fd5b600155565b6000816107ea8161074c565b34101561087e57604080517f08c379a000000000000000000000000000000000000000000000000000000000815260206004820152602a60248201527f4e6f7420656e6f7567682045544820746f20636f76657220617262697472617460448201527f696f6e20636f7374732e00000000000000000000000000000000000000000000606482015290519081900360840190fd5b5092915050565b600060028381548110151561089657fe5b906000526020600020906005020190508060010154821115151561091b57604080517f08c379a000000000000000000000000000000000000000000000000000000000815260206004820152600f60248201527f496e76616c69642072756c696e672e0000000000000000000000000000000000604482015290519081900360640190fd5b6002600482015460ff16600281111561093057fe5b14156109c357604080517f08c379a000000000000000000000000000000000000000000000000000000000815260206004820152602760248201527f5468652064697370757465206d757374206e6f7420626520736f6c766564206160448201527f6c72656164792e00000000000000000000000000000000000000000000000000606482015290519081900360840190fd5b6003810182905560048101805460ff1916600290811790915581015460405133916108fc811502916000818181858888f19350505050158015610a0a573d6000803e3d6000fd5b508054604080517f311a6c560000000000000000000000000000000000000000000000000000000081526004810186905260248101859052905173ffffffffffffffffffffffffffffffffffffffff9092169163311a6c569160448082019260009290919082900301818387803b158015610a8457600080fd5b505af1158015610a98573d6000803e3d6000fd5b505050505050505600a165627a7a723058202b8104e9f42aec8e253304b7b122e72168212997a50fd052429a22b4b2b9336a0029",
  "source": "/**\n *  @authors: [@clesaege, @n1c01a5, @epiqueras, @ferittuncer]\n *  @reviewers: [@clesaege*, @unknownunknown1*]\n *  @auditors: []\n *  @bounties: []\n *  @deployments: []\n *  @tools: [MythX]\n */\n\npragma solidity ^0.4.15;\n\nimport \"./Arbitrator.sol\";\n\n/** @title Centralized Arbitrator\n *  @dev This is a centralized arbitrator deciding alone on the result of disputes. No appeals are possible.\n */\ncontract CentralizedArbitrator is Arbitrator {\n\n    address public owner = msg.sender;\n    uint arbitrationPrice; // Not public because arbitrationCost already acts as an accessor.\n    uint constant NOT_PAYABLE_VALUE = (2**256-2)/2; // High value to be sure that the appeal is too expensive.\n\n    struct DisputeStruct {\n        Arbitrable arbitrated;\n        uint choices;\n        uint fee;\n        uint ruling;\n        DisputeStatus status;\n    }\n\n    modifier onlyOwner {require(msg.sender==owner, \"Can only be called by the owner.\"); _;}\n\n    DisputeStruct[] public disputes;\n\n    /** @dev Constructor. Set the initial arbitration price.\n     *  @param _arbitrationPrice Amount to be paid for arbitration.\n     */\n    constructor(uint _arbitrationPrice) public {\n        arbitrationPrice = _arbitrationPrice;\n    }\n\n    /** @dev Set the arbitration price. Only callable by the owner.\n     *  @param _arbitrationPrice Amount to be paid for arbitration.\n     */\n    function setArbitrationPrice(uint _arbitrationPrice) public onlyOwner {\n        arbitrationPrice = _arbitrationPrice;\n    }\n\n    /** @dev Cost of arbitration. Accessor to arbitrationPrice.\n     *  @param _extraData Not used by this contract.\n     *  @return fee Amount to be paid.\n     */\n    function arbitrationCost(bytes _extraData) public view returns(uint fee) {\n        return arbitrationPrice;\n    }\n\n    /** @dev Cost of appeal. Since it is not possible, it's a high value which can never be paid.\n     *  @param _disputeID ID of the dispute to be appealed. Not used by this contract.\n     *  @param _extraData Not used by this contract.\n     *  @return fee Amount to be paid.\n     */\n    function appealCost(uint _disputeID, bytes _extraData) public view returns(uint fee) {\n        return NOT_PAYABLE_VALUE;\n    }\n\n    /** @dev Create a dispute. Must be called by the arbitrable contract.\n     *  Must be paid at least arbitrationCost().\n     *  @param _choices Amount of choices the arbitrator can make in this dispute. When ruling ruling<=choices.\n     *  @param _extraData Can be used to give additional info on the dispute to be created.\n     *  @return disputeID ID of the dispute created.\n     */\n    function createDispute(uint _choices, bytes _extraData) public payable returns(uint disputeID)  {\n        super.createDispute(_choices, _extraData);\n        disputeID = disputes.push(DisputeStruct({\n            arbitrated: Arbitrable(msg.sender),\n            choices: _choices,\n            fee: msg.value,\n            ruling: 0,\n            status: DisputeStatus.Waiting\n            })) - 1; // Create the dispute and return its number.\n        emit DisputeCreation(disputeID, Arbitrable(msg.sender));\n    }\n\n    /** @dev Give a ruling. UNTRUSTED.\n     *  @param _disputeID ID of the dispute to rule.\n     *  @param _ruling Ruling given by the arbitrator. Note that 0 means \"Not able/wanting to make a decision\".\n     */\n    function _giveRuling(uint _disputeID, uint _ruling) internal {\n        DisputeStruct storage dispute = disputes[_disputeID];\n        require(_ruling <= dispute.choices, \"Invalid ruling.\");\n        require(dispute.status != DisputeStatus.Solved, \"The dispute must not be solved already.\");\n\n        dispute.ruling = _ruling;\n        dispute.status = DisputeStatus.Solved;\n\n        msg.sender.transfer(dispute.fee); // Avoid blocking.\n        dispute.arbitrated.rule(_disputeID,_ruling);\n    }\n\n    /** @dev Give a ruling. UNTRUSTED.\n     *  @param _disputeID ID of the dispute to rule.\n     *  @param _ruling Ruling given by the arbitrator. Note that 0 means \"Not able/wanting to make a decision\".\n     */\n    function giveRuling(uint _disputeID, uint _ruling) public onlyOwner {\n        return _giveRuling(_disputeID, _ruling);\n    }\n\n    /** @dev Return the status of a dispute.\n     *  @param _disputeID ID of the dispute to rule.\n     *  @return status The status of the dispute.\n     */\n    function disputeStatus(uint _disputeID) public view returns(DisputeStatus status) {\n        return disputes[_disputeID].status;\n    }\n\n    /** @dev Return the ruling of a dispute.\n     *  @param _disputeID ID of the dispute to rule.\n     *  @return ruling The ruling which would or has been given.\n     */\n    function currentRuling(uint _disputeID) public view returns(uint ruling) {\n        return disputes[_disputeID].ruling;\n    }\n}\n",
  "sourcePath": "/home/pauladayn/Kleros contracts/contracts/kleros-interaction/contracts/standard/arbitration/CentralizedArbitrator.sol",
  "compiler": {
    "name": "solc",
    "version": "0.4.25+commit.59dbf8f1.Emscripten.clang"
  },
  "schemaVersion": "3.3.4",
  "updatedAt": "2021-04-16T15:13:02.124Z",
  "devdoc": {
    "methods": {
      "appeal(uint256,bytes)": {
        "details": "Appeal a ruling. Note that it has to be called before the arbitrator contract calls rule.",
        "params": {
          "_disputeID": "ID of the dispute to be appealed.",
          "_extraData": "Can be used to give extra info on the appeal."
        }
      },
      "appealCost(uint256,bytes)": {
        "details": "Cost of appeal. Since it is not possible, it's a high value which can never be paid.",
        "params": {
          "_disputeID": "ID of the dispute to be appealed. Not used by this contract.",
          "_extraData": "Not used by this contract."
        },
        "return": "fee Amount to be paid."
      },
      "appealPeriod(uint256)": {
        "details": "Compute the start and end of the dispute's current or next appeal period, if possible.",
        "params": {
          "_disputeID": "ID of the dispute."
        },
        "return": "The start and end of the period."
      },
      "arbitrationCost(bytes)": {
        "details": "Cost of arbitration. Accessor to arbitrationPrice.",
        "params": {
          "_extraData": "Not used by this contract."
        },
        "return": "fee Amount to be paid."
      },
      "createDispute(uint256,bytes)": {
        "details": "Create a dispute. Must be called by the arbitrable contract. Must be paid at least arbitrationCost().",
        "params": {
          "_choices": "Amount of choices the arbitrator can make in this dispute. When ruling ruling<=choices.",
          "_extraData": "Can be used to give additional info on the dispute to be created."
        },
        "return": "disputeID ID of the dispute created."
      },
      "currentRuling(uint256)": {
        "details": "Return the ruling of a dispute.",
        "params": {
          "_disputeID": "ID of the dispute to rule."
        },
        "return": "ruling The ruling which would or has been given."
      },
      "disputeStatus(uint256)": {
        "details": "Return the status of a dispute.",
        "params": {
          "_disputeID": "ID of the dispute to rule."
        },
        "return": "status The status of the dispute."
      },
      "giveRuling(uint256,uint256)": {
        "details": "Give a ruling. UNTRUSTED.",
        "params": {
          "_disputeID": "ID of the dispute to rule.",
          "_ruling": "Ruling given by the arbitrator. Note that 0 means \"Not able/wanting to make a decision\"."
        }
      },
      "setArbitrationPrice(uint256)": {
        "details": "Set the arbitration price. Only callable by the owner.",
        "params": {
          "_arbitrationPrice": "Amount to be paid for arbitration."
        }
      }
    },
    "title": "Centralized Arbitrator"
  },
  "userdoc": {
    "methods": {}
  }
}