{
  "contractName": "ExperimentalProxy",
  "abi": [
    {
      "constant": true,
      "inputs": [],
      "name": "implementation",
      "outputs": [
        {
          "name": "",
          "type": "address"
        }
      ],
      "payable": false,
      "stateMutability": "view",
      "type": "function"
    },
    {
      "constant": true,
      "inputs": [],
      "name": "storageIsEternal",
      "outputs": [
        {
          "name": "",
          "type": "bool"
        }
      ],
      "payable": false,
      "stateMutability": "view",
      "type": "function"
    },
    {
      "inputs": [
        {
          "name": "_storageIsEternal",
          "type": "bool"
        },
        {
          "name": "_implementation",
          "type": "address"
        }
      ],
      "payable": false,
      "stateMutability": "nonpayable",
      "type": "constructor"
    },
    {
      "payable": true,
      "stateMutability": "payable",
      "type": "fallback"
    }
  ],
  "bytecode": "0x608060405234801561001057600080fd5b5060405160408061034c83398101604052805160209091015160008054600160a060020a039092166101000261010060a860020a031993151560ff1990931692909217929092161790556102e3806100696000396000f30060806040526004361061004b5763ffffffff7c01000000000000000000000000000000000000000000000000000000006000350416635c60da1b81146101fe578063913d904a1461023c575b6000805460609082908290610100900473ffffffffffffffffffffffffffffffffffffffff16151561010457604080517f08c379a000000000000000000000000000000000000000000000000000000000815260206004820152602a60248201527f496d706c656d656e746174696f6e2063616e6e6f7420626520746865207a657260448201527f6f20616464726573732e00000000000000000000000000000000000000000000606482015290519081900360840190fd5b6000805460408051602036601f810182900482028301820190935282825260ff9093169750929181908401838280828437820191505050505050925061016e6000357fffffffff000000000000000000000000000000000000000000000000000000001684610265565b915060208301835160008660008114610190576000808486895af4915061019c565b6000808486348a5af191505b503d60405160208101828252826000823e8380156101bc578297506101c0565b8382fd5b505050505050506101f66000357fffffffff00000000000000000000000000000000000000000000000000000000168483610288565b805160208201f35b34801561020a57600080fd5b5061021361028d565b6040805173ffffffffffffffffffffffffffffffffffffffff9092168252519081900360200190f35b34801561024857600080fd5b506102516102ae565b604080519115158252519081900360200190f35b5050600054610100900473ffffffffffffffffffffffffffffffffffffffff1690565b505050565b600054610100900473ffffffffffffffffffffffffffffffffffffffff1681565b60005460ff16815600a165627a7a7230582098152b38983ff39fbc359370a154b9c1035a84d585cfb2c655b9e52096b934cb0029",
  "source": "pragma solidity ^0.4.15;\n\n/**\n *  @title ExperimentalProxy\n *  @author Enrique Piqueras - <epiquerass@gmail.com>\n *  @notice An experimental base proxy contract that forwards all calls to the 'implementation' contract and optionally keeps all storage.\n */\ncontract ExperimentalProxy {\n    /* Storage */\n\n    bool public storageIsEternal;\n    address public implementation;\n\n    /* Constructor */\n\n    /**\n     * @notice Constructs the proxy with the eternal storage flag and an initial 'implementation' contract address.\n     * @param _storageIsEternal Wether this contract should store all storage. I.e. Use 'delegatecall'.\n     * @param _implementation The initial 'implementation' contract address.\n     */\n    constructor(bool _storageIsEternal, address _implementation) public {\n        storageIsEternal = _storageIsEternal;\n        implementation = _implementation;\n    }\n\n    /* Fallback */\n\n    /**\n     * @notice The fallback function that forwards calls to the 'implementation' contract.\n     * @return The result of calling the requested function on the 'implementation' contract.\n     */\n    function () external payable {\n        require(implementation != address(0), \"Implementation cannot be the zero address.\"); // Make sure address is valid\n\n        // Store necessary data for assembly in local memory\n        bool _storageIsEternal = storageIsEternal;\n        bytes memory _data = msg.data;\n        address _implementation = getImplementation(msg.sig, _data);\n\n        // Return data\n        bytes memory _retData;\n\n        // solium-disable-next-line security/no-inline-assembly\n        assembly {\n            // Start of payload raw data (skip over size slot)\n            let _dataPtr := add(_data, 0x20)\n\n            // Payload's size\n            let _dataSize := mload(_data)\n\n            // Figure out what OPCODE to use and forward call\n            let _result\n            switch _storageIsEternal\n            case 0 { // Not eternal, use implementation's storage\n                _result := call(gas, _implementation, callvalue, _dataPtr, _dataSize, 0, 0)\n            }\n            default { // Eternal, use current contract's storage\n                _result := delegatecall(gas, _implementation, _dataPtr, _dataSize, 0, 0)\n            }\n\n            // Size of the returned data\n            let _retSize := returndatasize\n\n            let _retPtr := mload(0x40) // Start of free memory\n            let _retDataPtr := add(_retPtr, 0x20) // Make space for 'bytes' size\n\n            // Build `_retData` 'bytes'\n            mstore(_retPtr, _retSize) // Copy size\n            returndatacopy(_retDataPtr, 0, _retSize) // Copy returned data\n\n            // Figure out wether to revert or continue with the returned data\n            switch _result\n            case 0 { // Error\n                revert(_retDataPtr, _retSize)\n            }\n            default { // Success\n                _retData := _retPtr\n            }\n        }\n\n        // Call on-chain handler\n        handleProxySuccess(msg.sig, _data, _retData);\n\n        // solium-disable-next-line security/no-inline-assembly\n        assembly {\n            return(add(_retData, 0x20), mload(_retData)) // Return returned data\n        }\n    }\n\n    /* Private */\n\n    /**\n     * @notice On-chain handler that gets called with call data and the 'implementation' contract's return data after a call is successfully proxied.\n     * @dev Overwrite this function to handle the results of proxied calls in this contract.\n     * @param _sig The function signature of the called function.\n     * @param _data The data passed into the call.\n     * @param _retData The return data of the 'implementation' contract for the proxied call.\n     */\n    function handleProxySuccess(bytes4 _sig, bytes _data, bytes _retData) private {}\n\n    /* Private Views */\n\n    /**\n     * @notice Function for dynamically getting the 'implementation' contract address.\n     * @dev Overwrite this function to implement custom resolving logic based on the function being called and the data passed in.\n     * @param _sig The function signature of the called function.\n     * @param _data The data passed into the call.\n     * @return The resolved 'implementation' contract address.\n     */\n    function getImplementation(bytes4 _sig, bytes _data) private view returns(address _implementation) { return implementation; }\n}\n",
  "sourcePath": "/home/pauladayn/Kleros contracts/contracts/kleros-interaction/contracts/standard/proxy/ExperimentalProxy.sol",
  "compiler": {
    "name": "solc",
    "version": "0.4.25+commit.59dbf8f1.Emscripten.clang"
  },
  "schemaVersion": "3.3.4",
  "updatedAt": "2021-04-16T15:13:02.291Z",
  "devdoc": {
    "author": "Enrique Piqueras - <epiquerass@gmail.com>",
    "methods": {},
    "title": "ExperimentalProxy"
  },
  "userdoc": {
    "methods": {}
  }
}